:020000040800F2
:10000000600D0020C5010008C5370008E73300086F
:10001000C137000835080008D5410008000000007D
:10002000000000000000000000000000053900088A
:10003000C70D0008000000007B38000807390008E1
:10004000DF010008DF010008DF010008DF01000810
:10005000DF010008DF010008DF010008DF01000800
:10006000DF010008DF010008DF010008DF010008F0
:100070007D0C0008DF010008DF010008DF01000837
:10008000DF0100088D0C0008DF010008DF01000817
:1000900039080008DF010008DF010008DF0100085F
:1000A000DF010008DF010008DF010008DF010008B0
:1000B000E1390008F1390008013A0008DF010008C1
:1000C000DF010008DF010008DF010008DF01000890
:1000D000DF010008DF010008DF010008DF01000880
:1000E000DF010008DF010008DF010008DF01000870
:1000F000DF010008DF010008DF010008DF01000860
:10010000DF010008DF010008DF010008DF0100084F
:10011000DF010008DF010008DF010008DF0100083F
:10012000DF0100089D0C0008AD0C0008DF0100088D
:10013000DF010008DF010008DF010008DF0100081F
:10014000DF010008DF010008DF010008DF0100080F
:10015000DF010008DF010008DF010008DF010008FF
:10016000DF010008DF010008DF010008DF010008EF
:10017000DF010008DF010008DF01000800000000C7
:10018000DF010008DF010008DF010008DF010008CF
:10019000DF010008DF010008DF010008DF010008BF
:1001A0000000000000000000DF010008DFF810D0B0
:1001B00000F02EFB0048004775420008AFF30080B6
:1001C000600D00200648804706480047FEE7FEE72E
:1001D000FEE7FEE7FEE7FEE7FEE7FEE7FEE7FEE7F7
:1001E000C5390008AD0100082DE9F05F0546002083
:1001F00092469B4688460646814640241BE0284698
:1002000041464746224600F04CFA53465A46C01A29
:10021000914110D311461846224600F033FA2D1AA8
:1002200067EB01084F4622460120002100F02AFA20
:1002300017EB00094E41201EA4F10104DFDC484603
:1002400031462A464346BDE8F09F40EA01039B073A
:1002500003D009E008C9121F08C0042AFAD203E03B
:1002600011F8013B00F8013B521EF9D27047D2B29F
:1002700001E000F8012B491EFBD270470022F6E78F
:1002800010B513460A4604461946FFF7F0FF20460C
:1002900010BD2DE9FE4F804681EA0300C00F0C46D9
:1002A000009021F0004123F00045B8EB0200A94185
:1002B00005D24046214690461C460B46024623F096
:1002C0000040104347D0270DC7F30A00C3F30A517B
:1002D0000290401A019040286BDAC3F3130040F4F7
:1002E000801B0098924620B10023D2EB030A63EBF7
:1002F0000B0B01985946C0F14002504600F0C2F97C
:1003000006460D4650465946019A00F0DAF910EBC0
:1003100008006141002487EA115284EAE7731A4316
:1003200040D0009A62B3019A012A4FEA075215DCC5
:10033000001B61EB02014FF0004202EA0752CDE9D7
:100340000042001C41F5801132462B4600F011FAA4
:1003500003B0BDE8F08F40462146F9E7001B61EB92
:100360000201001C41F5801300185B412018A2F522
:10037000001747EB030140EAD570B6196D4111E053
:100380006D084FEA360645EAC0754FEA0752001B72
:1003900061EB0201001C41F5801149084FEA300071
:1003A0000019514132462B4603B0BDE8F04F00F032
:1003B000D1B90098012240000023D0EB020263EB88
:1003C000E073009821464FEAE074B8EB000061EB5F
:1003D0000401E9E783F000435BE781F0004158E75F
:1003E0002DE9FE4F81EA030404F0004421F00041AE
:1003F00000944FF0000B23F0004350EA01045ED05C
:1004000052EA03045BD0C3F30A54C1F30A552C44E7
:10041000A4F2F3340194A0FB0254C1F3130141F49C
:100420008011C3F3130343F4801301FB024400FB68
:10043000034E840A970A44EA815447EA8357A4FB8F
:10044000076802958D0A05FB07854FEA932C04FB8C
:100450000C542705029D4FEA065847EA1637B5EBBC
:1004600008056EEB070C870E920E47EA811742EAE9
:100470008312A7FB0201B6EB0B0164EB00042B0D0A
:1004800043EA0C335E1844EB1C50DA465146E7FB56
:100490000201C5F313044FEA0B3343EA14534FEA46
:1004A0000432019C43EA0603A4F10C040294009C6C
:1004B000CDE900B400F05DF903B0BDE8F08F002095
:1004C0000146F9E72DE9F04D81EA030404F0004B01
:1004D00021F0004514464FF0000A23F0004150EA95
:1004E000050220D054EA01021DD0C5F30A57024686
:1004F000C5F31303C1F31300C1F30A5640F480158A
:1005000043F48013A7EB0608101BD64608F2FD380B
:1005100073EB050002D308F1010801E092185B417A
:10052000B8F1000F03DA00200146BDE8F08D00208D
:100530004FF48011064684460EE0171B73EB050747
:1005400005D3121B63EB050306434CEA010C490873
:100550004FEA300092185B4150EA0107EDD152EAB0
:10056000030012D082EA040083EA0501084305D0A3
:10057000101BAB4106D20122002306E000224FF0FF
:10058000004302E06FF0010253101AEB06004CEB3F
:10059000085110EB0A0041EB0B01BDE8F04D00F0F3
:1005A000D9B80EB5C10F80EAE0700844CA0700212F
:1005B00040F233438DE80E000A460B4600F0D9F8AE
:1005C00003B000BD00F0004230F000400AD0C10D81
:1005D00001F56071C0F3160042EA0151C2084007FC
:1005E00011437047002001467047000030B5041EDB
:1005F00071F1000404DB4FF00044404264EB010160
:10060000141E73F1000405DB1C464FF000435242F8
:1006100063EB04038B4208BF824230BD30B5041E39
:1006200071F1000404DB4FF00044404264EB01012F
:10063000141E73F1000405DB1C464FF000435242C8
:1006400063EB0403994208BF904230BD01F00043C0
:1006500030B421F0004150EA010206D00A0DA2F5A3
:100660006072C1F31301002A02DC30BC0020704725
:10067000440F44EAC104C100E01830BC00EBC25092
:1006800000F031B8202A04DB203A00FA02F1002001
:1006900070479140C2F1200320FA03F319439040C0
:1006A0007047202A04DB203A21FA02F0002170472B
:1006B00021FA02F3D040C2F12002914008431946CA
:1006C0007047202A06DBCB17203A41FA02F043EAB2
:1006D000E07306E041FA02F3D040C2F120029140FB
:1006E0000843194670470029A8BF7047401C4900BD
:1006F00008BF20F00100704710B4B0FA80FC00FA87
:100700000CF050EA010404BF10BC704749B1CCF1B1
:10071000200421FA04F411FA0CF118BF012121433D
:100720000843A3EB0C01CB1D4FEA00614FEA1020F8
:1007300042BF002010BC704700EBC350104400299A
:10074000A4BF10BC7047401C490008BF20F0010046
:1007500010BC704710B5141E73F1000408DA401C79
:1007600041F1000192185B411A4301D120F00100D0
:1007700010BD2DE9F04D92469B4611B1B1FA81F2C0
:1007800002E0B0FA80F220329046FFF77BFF044689
:100790000F4640EA0A0041EA0B0153465A46084315
:1007A00013D0114653EA010019D0C8F14002504657
:1007B000FFF777FF05460E46504659464246FFF77B
:1007C00061FF084305D0012004E020463946BDE81A
:1007D000F08D0020054346EAE0762C4337430A9823
:1007E0006305E40AA0EB08000022FD0A44EA47542E
:1007F0000A3002D500200146E9E7010510196941D8
:10080000DDE9084500196941BDE8F04DA2E70000A7
:10081000064C074D06E0E06840F0010394E807004D
:1008200098471034AC42F6D3FFF7C4FC5448000894
:100830007448000800BFFEE710B5024800F0F3FC62
:1008400010BD0000BC00002010B58AB00446002096
:1008500005900690012007900020009001900290E2
:1008600003900490012008900E20099069462046CC
:1008700000F06EFB08B100F0A7FA204600F025FF5B
:1008800008B100F0A1FA0221204600F0A0FA08B158
:1008900000F09AFA00200AB010BD00000FB410B5A5
:1008A000049818B90349029800F07EF810BC5DF86E
:1008B00014FB0000640000202DE9F04188B0804660
:1008C0000C4615461E460E9F082006908001029099
:1008D000002004900590200A8DF80000E0B28DF809
:1008E0000100280A8DF80200E8B28DF80300300AF2
:1008F0008DF80400F0B28DF80500380A8DF8060076
:10090000F8B28DF8070000BF404600F071FC0028E7
:10091000FAD0064B6A4602A9404600F06DFA08B1CB
:1009200000F052FA08B0BDE8F0810000600000203D
:100930002DE9F04188B080460C4615461E460E9FB4
:100940000820069040F2FF100290002004900590CD
:10095000200A8DF80000E0B28DF80100280A8DF819
:100960000200E8B28DF80300300A8DF80400F0B2FE
:100970008DF80500380A8DF80600F8B28DF80700EA
:1009800000BF404600F034FC0028FAD0054B6A4610
:1009900002A9404600F030FA08B100F015FA08B09C
:1009A000BDE8F0816000002070B505460E46A5F256
:1009B0000124002C29DB082C27DA04EBC40014499D
:1009C00001EB00104068322815DA04EBC401104A2C
:1009D00002EB0110314603F02BFC04EBC4000C4980
:1009E00001EB00104068401C04EBC401084A02EB14
:1009F0000111486007E004EBC401054A02EB011055
:100A0000314600F091F8002070BD0120FCE70000A5
:100A10004C040020002071E0B2EE0E0A00EBC00191
:100A2000384A02EB011181ED0E0AB7EE000A00EB25
:100A3000C00102EB011181ED0F0AB7EE000A00EBD5
:100A4000C00102EB011181ED100A9FED2F0A00EBAE
:100A5000C00102EB011181ED170A9FED2C0A00EB9A
:100A6000C00102EB011181ED190A9FED290A00EB8B
:100A7000C00102EB011181ED1A0A9FED250A00EB7E
:100A8000C00102EB011181ED1B0A9FED220A00EB70
:100A9000C00102EB011181ED220A9FED1F0A00EB5C
:100AA000C00102EB011181ED230A00EBC00102EB52
:100AB0000111097841B99FED190A00EBC00102EB61
:100AC000011181ED0C0A0FE000EBC0010D4A02EBB1
:100AD00001110978012907D19FED110A00EBC0012E
:100AE00002EB011181ED0C0A9FED0E0A00EBC00133
:100AF000044A02EB011181ED0D0A401C08288BDB32
:100B0000704700004C04002000401C460000A0423A
:100B10000000000000409C4500007A442CA0994150
:100B2000000010420000004670B52DED028B044617
:100B30000D466878297840EA012000EE100AB8EEE8
:100B4000C00ADFED490A20EE200AD4ED0D0A80EE3E
:100B5000201A84ED021AE878A97840EA012000B250
:100B600000EE100AB8EEC00A84ED030A687929790C
:100B700040EA012000B200EE100AB8EEC00A84ED8F
:100B8000040A94ED070A84ED060A94ED020A84ED46
:100B9000070A94ED070AD4ED060A30EE600A10EE5B
:100BA000101A0846FFF70EFD41EC180B9FED2F0BB6
:100BB00053EC102BFFF732FD03D2606A401E6062D7
:100BC00016E094ED070AD4ED060A30EE600A10EE46
:100BD000101A0846FFF7F6FC41EC180B9FED250BA9
:100BE00053EC102BFFF702FD02D2606A401C6062DA
:100BF00094ED090AB8EEC00ADFED1B0A20EE200AC8
:100C000084ED0A0A94ED070AD4ED080A30EE600A72
:100C1000D4ED0A0A30EE200A84ED0A0A94ED0A0A9D
:100C2000D4ED0C0A80EE201A84ED0A1A94ED030A22
:100C3000D4ED0C0A80EE201A84ED0B1A4FF4B47137
:100C4000606A484300EE100AB8EEC00AD4ED070A05
:100C500030EE200AD4ED080A30EE600A84ED050A71
:100C6000BDEC028B70BD00000000B443000000002A
:100C70000080664000000000008066C010B5024899
:100C800000F05AFD10BD00004403002010B50248DA
:100C900000F052FD10BD00008402002010B5024893
:100CA00000F04AFD10BD0000A403002010B502486A
:100CB00000F042FD10BD0000E4020020014608786B
:100CC00010381823B0FBF3F20848805CC865032A8B
:100CD00005D908686FF30900001D886503E00868FE
:100CE0006FF309008865886D70470000344800087C
:100CF000014600208A6A8B69CBB932B1012A0DD036
:100D0000022A03D0032A10D10EE000BFCB6A03F001
:100D10008073B3F1807F00D1012007E0CB6AB3F18B
:100D2000C07F00D1012001E000E000BF34E08B690A
:100D3000B3F5005F1AD132B1012A07D0022A03D0DD
:100D4000032A11D10AE000BF01200EE0CB6A03F0B4
:100D50008073B3F1807F00D1012006E0CB6AB3F14C
:100D6000C07F00D1012000E000BF15E032B1012AB0
:100D700005D0022A04D0032A0CD103E000BF00BF33
:100D8000012008E0CB6A03F08073B3F1807F00D1CB
:100D9000012000E000BF00BF704730B50468246840
:100DA00024F4802405682C60046863608468402C07
:100DB00004D10468A2600468E16003E00468A160F3
:100DC0000468E26030BD704772B600BFFEE710B540
:100DD000024692F82030012B01D0022B06D1106878
:100DE0004069084314686061002010BD506A40F4F7
:100DF000802050620120F8E7F0B504460D461E46FB
:100E000094F8207020688368A86800B900E000BFEB
:100E1000012F01D0022F7CD103F0806030B903F0A4
:100E2000006018B903F08050002873D0C3F301614B
:100E3000022905D9606A40F4000060620120F0BD1B
:100E4000012088403060A86860B9B5F800C0E86843
:100E500040EA4C5C206800F5C07000EB0110C0F85F
:100E600000C00FE0D5E901C040EACC00D5F80CC0C5
:100E700040EA0C00D4F800C00CF5C07C0CEB011C5F
:100E8000CCF80000D5F810C0206800F5C07000EB69
:100E90000110C0F804C0287D01280ED1206800F59B
:100EA000C07000EB0110406840F4807C206800F5C1
:100EB000C07000EB0110C0F804C0D079000692F8B1
:100EC00006C040EA0C4092F805C040EA0C2C1079AC
:100ED0004CEA000C206800F5C07000EB0110C0F86F
:100EE0000CC0D078000692F802C040EA0C4092F89C
:100EF00001C040EA0C2092F800C040EA0C00D4F88F
:100F000000C00CF5C07C0CEB011CCCF8080020687C
:100F100001E016E00FE000F5C07000EB0110006882
:100F200040F0010C206800F5C07000EB0110C0F823
:100F300000C0002083E7606A40F400106062012076
:100F40007DE7606A40F480206062012077E700005E
:100F5000F0B504460A46216894F82050012D01D0CE
:100F6000022D7ED1424901F50071086840F0010070
:100F70000860086820F47C5008600868566A40EAF7
:100F800006200860107D00F01F06012000FA06F31D
:100F9000C8699843C861A1F50071D069C8B9D1F892
:100FA0000C029843C1F80C02908880B2968940EAFE
:100FB000064601F51070576940F83760108880B216
:100FC000168940EA064601F51070576900EBC70024
:100FD0004660D069012819D1D1F80C021843C1F834
:100FE0000C02908880B2168840EA064601F510701F
:100FF000576940F83760908980B2168940EA064602
:1010000001F51070576900EBC7004660906928B978
:10101000D1F804029843C1F8040204E0D1F80402B4
:101020001843C1F80402106928B9D1F81402984392
:10103000C1F8140204E0D1F814021843C1F81402F4
:10104000106A012804D1D1F81C021843C1F81C020F
:10105000D1F8000220F00100C1F800020020F0BD2C
:10106000FFE7606A40F4802060620120F7E700003B
:1010700000640040704770B5044694F82050012D7C
:1010800001D0022D7DD151B92068C06800F0030065
:1010900080B9606A40F400106062012070BD206871
:1010A000006900F0030028B9606A40F40010606233
:1010B0000120F3E7206800F5D87000EB011000680C
:1010C00000F004009060906840B9206800F5D87086
:1010D00000EB01100068400D106007E0206800F58B
:1010E000D87000EB01100068C0085060206800F55F
:1010F000D87000EB0110006800F00200D06020689A
:1011000000F5D87000EB0110406800F00F0010618E
:10111000206800F5D87000EB0110406800F47F40B3
:10112000000A9061206800F5D87000EB011040685B
:10113000000C5061206800F5D87000EB0110806849
:101140001870206800F5D87000EB0110806800F47A
:101150007F40000A5870206800F5D87000EB01103D
:10116000806800F47F00000C9870206800F5D8704B
:1011700000EB01108068000ED870206800F5D87070
:1011800000E02FE000EB0110C0681871206800F546
:10119000D87000EB0110C06800F47F40000A58715D
:1011A000206800F5D87000EB0110C06800F47F00E3
:1011B000000C9871206800F5D87000EB0110C06831
:1011C000000ED87131B92068C06840F02000266850
:1011D000F06005E02068006940F02000266830617A
:1011E00000205BE7606A40F480206062012055E7E0
:1011F0000146002091F82020012A01D0022A11D1B5
:101200000B689B6803F0806303B1401C0B689B680C
:1012100003F0006303B1401C0B689B6803F080532C
:1012200003B1401C70472DE9F05F0446002520689B
:1012300046692068D0F80490206887682068D0F854
:101240000CA02068D0F810B02068D0F8188006F004
:101250000100002855D007F00100C0B1012021682D
:10126000886007F0020018B1204600F05EFA0EE038
:1012700007F0040010B145F4006508E007F008002D
:1012800010B145F4805502E0204600F04DFA07F415
:101290008070C8B14FF480702168886007F40070D6
:1012A00018B1204600F043FA0EE007F4806010B158
:1012B00045F4005508E007F4006010B145F480459E
:1012C00002E0204600F032FA07F48030C8B14FF453
:1012D00080302168886007F4003018B1204600F0A3
:1012E00028FA0EE007F4802010B145F4004508E02C
:1012F00007F4002010B145F4803502E0204600F0EC
:1013000017FA06F0080038B10AF0100020B145F4D1
:10131000007510202168C86006F0040040B10AF092
:10132000080028B108202168C860204600F0A8F90C
:1013300006F0020038B12068C06800F0030010B168
:10134000204600F09FF906F0400038B10BF0100085
:1013500020B145F4806510202168086106F0200066
:1013600040B10BF0080028B1082021680861204630
:1013700000F0A8F906F0100038B12068006900F00C
:10138000030010B1204600F09EF906F4003040B191
:1013900009F0100028B1102021684860204600F0B4
:1013A00093F906F4803040B109F0080028B1082014
:1013B00021684860204600F0BDF906F4004088B37B
:1013C00009F0040078B306F4807020B108F0010041
:1013D00008B145F0010506F4007020B108F00200E4
:1013E00008B145F0020506F4806020B108F0040061
:1013F00008B145F0040506F40060A0B108F07000E3
:1014000088B108F07000402817D006DC10280BD0F7
:1014100020280CD0302819D10CE0502810D060289A
:1014200014D110E01DE019E045F008050FE045F08B
:1014300010050CE045F0200509E045F0400506E008
:1014400045F0800503E045F4807500E000BF00BF73
:101450002068806920F0700021688861042021687C
:1014600048602DB1606A284360622046FFF702FEA3
:10147000BDE8F09F70B504460CB9012070BD94F82A
:10148000200010B9204600F0AFF82068006840F056
:1014900001002168086000F051FC05460DE000F0F5
:1014A0004DFC401B0A2808D9606A40F40030606295
:1014B000052084F820000120E0E72068406800F063
:1014C00001000028EBD02068006820F002002168AD
:1014D000086000F033FC05460DE000F02FFC401BD7
:1014E0000A2808D9606A40F400306062052084F858
:1014F00020000120C2E72068406800F002000028B8
:10150000EBD1207E012806D12068006840F08000E1
:101510002168086005E02068006820F080002168EC
:101520000860607E012806D12068006840F0400015
:101530002168086005E02068006820F0400021680C
:101540000860A07E012806D12068006840F02000D5
:101550002168086005E02068006820F0200021680C
:101560000860E07E012806D12068006820F01000A5
:101570002168086005E02068006840F010002168DC
:101580000860207F012806D12068006840F008002C
:101590002168086005E02068006820F008002168E4
:1015A0000860607F012806D12068006840F00400D0
:1015B0002168086005E02068006820F004002168C8
:1015C0000860D4E9020108432169084361690843BE
:1015D0006168491E08432168C861002060620120DB
:1015E00084F82000002049E710B586B00446142195
:1015F00001A8FEF743FE1F492068884237D100BF8B
:10160000002000901C48006840F000701A490860F3
:101610000846006800F00070009000BF00BF00BFE7
:101620000020009014481038006840F0080012496B
:10163000103908600846006800F00800009000BFFC
:1016400000BF03200190022002900020039003209D
:1016500004900920059001A9084800F061FA0022D1
:101660001146142000F028FC142000F015FC06B0F0
:1016700010BD00000064004040380240000C0240F1
:101680007047000010B58AB004460C49206809680C
:10169000884210D10A4B03AA00212046FFF7EBFC39
:1016A00008B1FFF791FB07A807C88DE8070003A85A
:1016B0000FC8FFF7F3F80AB010BD0000BC0000200F
:1016C0006400002070477047704770B5044694F876
:1016D0002000012822D1022084F820002068006820
:1016E00020F001002168086000F028FB05460DE0AD
:1016F00000F024FB401B0A2808D9606A40F400303F
:101700006062052084F82000012070BD20684068D8
:1017100000F001000028EBD16062F6E7606A40F457
:10172000002060620120F0E7704770477047704703
:101730007047704770470000F8B5044600200090DD
:101740008C4800684FF41651B0FBF1F7A56D2E6878
:1017500094F85C1008208840304098B120680068F8
:1017600000F0040070B12068006820F004002168D7
:10177000086094F85C1008208840A860606D40F014
:101780000100606594F85C1001208840304068B129
:101790002068406900F0800040B194F85C1001209E
:1017A0008840A860606D40F00200606594F85C10AD
:1017B00004208840304068B12068006800F00200D2
:1017C00040B194F85C1004208840A860606D40F03F
:1017D0000400606594F85C1010208840304078B3B5
:1017E0002068006800F0080050B394F85C101020E6
:1017F0008840A8602068006800F4802080B12068DC
:10180000006800F4002028B9206CC8B12046216C83
:10181000884715E0A06C98B12046A16C88470FE07E
:101820002068006800F4807028B92068006820F003
:10183000080021680860206C10B12046216C8847A0
:1018400094F85C10202088403040002865D0206843
:10185000006800F0100000285FD094F85C10202091
:101860008840A86094F83500052828D120680068D1
:1018700020F01600216808602068406920F0800090
:1018800021684861206C08B9A06C28B12068006804
:1018900020F008002168086094F85C103F20884020
:1018A000A860012084F8350000BF002084F83400CF
:1018B00000BF206D10B12046216D8847F8BD20681B
:1018C000006800F4802080B12068006800F40020E7
:1018D00028B9606C10B12046616C88471DE0E06B50
:1018E000D8B12046E16B884717E02068006800F413
:1018F000807068B92068006820F0100021680860D6
:10190000012084F8350000BF002084F8340000BFB7
:10191000E06B10B12046E16B8847606D38B3606DB5
:1019200000F00100F0B1052084F83500206800685F
:1019300020F001002168086000BF0098401C009062
:10194000B84200D905E02068006800F001000028D6
:10195000F3D100BF012084F8350000BF002084F8D7
:10196000340000BFE06C10B12046E16C884700BF36
:10197000A4E70000A80000202DE9F041044600255E
:1019800000F0DCF9074614B90120BDE8F081606A77
:1019900000B100BF022084F8350000BF002084F8A9
:1019A000340000BF2068006820F001002168086052
:1019B0000AE000F0C3F9C01B052805D920206065A6
:1019C000032084F83500E0E72068006800F001009B
:1019D0000028EED12068056821480540D4E90101BE
:1019E0000843E16808432169084361690843A16924
:1019F0000843E1690843216A08430543606A0428F3
:101A000003D1D4E90B010843054320680560206831
:101A1000456925F00705606A0543606A04280DD111
:101A2000A06A0543E06A48B12046FFF761F928B192
:101A300040206065012084F83500A6E720684561F4
:101A40002046FFF73BF9064694F85C103F2088409B
:101A5000B06000206065012084F83500002094E724
:101A60003F8010F02DE9F04704460D4616461F460C
:101A70004FF00008D4F8589000BF94F834000128C3
:101A800002D10220BDE8F087012084F8340000BFB5
:101A900094F83500012825D1022084F83500002073
:101AA00060653B46324629462046FFF776F994F8B2
:101AB0005C103F208840C9F808002068006840F0AA
:101AC000160021680860206C28B12068006840F08A
:101AD0000800216808602068006840F00100216863
:101AE000086006E000BF002084F8340000BF4FF01B
:101AF00002084046C6E7000070B5044600F01EF933
:101B000006462546681C10B104480078054400BF0D
:101B100000F014F9801BA842FAD370BDA400002085
:101B2000F8B502460B460025002400200021E0E025
:101B3000012606FA01F51E6806EA0504AC4274D1D6
:101B40001E7906F00306012E04D01E7906F0030666
:101B5000022E13D190684F000326BE40B0434F00C1
:101B6000DE68BE4030439060506801268E40B0432E
:101B70001E79C6F300168E40304350601E7906F081
:101B80000306032E09D0D0684F000326BE40B043A1
:101B90004F009E68BE403043D0601E7906F00306B9
:101BA000022E13D1CF0802F1200656F827004E0767
:101BB000F70E0F26BE40B0434F07FF0E1E69BE4012
:101BC0003043CF0802F1200646F8270010684F0086
:101BD0000326BE40B0431E7906F003064F00BE4008
:101BE000304310605E6806F44036002E1DD000BF02
:101BF00000260096414E366846F480463F4F3E60D0
:101C00003E46366806F48046009600BF00BF3C4E54
:101C10008F0856F827008E07370F0F26BE40B043B7
:101C2000384EB24202D100262EE061E0364EB2427A
:101C300001D1012628E0354EB24201D1022623E02F
:101C4000334EB24201D103261EE0324EB24201D1E0
:101C5000042619E0304EB24201D1052614E02F4E81
:101C6000B24201D106260FE02D4EB24201D1072625
:101C70000AE02C4EB24201D1082605E02A4EB242BB
:101C800001D1092600E00A268F073F0FBE403043EE
:101C90001B4E8F0846F82700244E3068A0435E682C
:101CA00006F4801606B12043204E3060361D3068A1
:101CB000A0435E6806F4001606B120431B4E361D95
:101CC00030601A4E361F3068A0435E6806F4003656
:101CD00006B12043154E361F3060361F3068A043D2
:101CE0005E6806F4803606B12043104E083E306030
:101CF000491C1029FFF41CAFF8BD00004438024015
:101D00000838014000000240000402400008024080
:101D1000000C024000100240001402400018024073
:101D2000001C02400020024000240240083C014008
:101D30000AB1816101E00B048361704701480068CA
:101D4000704700009C0000200348006803490978A0
:101D500008440149086070479C000020A40000204E
:101D600010B50D48006840F400700B490860084643
:101D7000006840F4806008600846006840F48070A5
:101D80000860032000F0D6F8002000F007F800F00B
:101D90005FF8002010BD0000003C02402DE9F0413A
:101DA00088B004460027B84600BF002001902348B1
:101DB000006840F00400214908600846006800F00F
:101DC0000400019000BF00BF02A903A800F0CEF9F3
:101DD000069F1FB900F0F2F9054602E000F0EEF9A7
:101DE00045001748B5FBF0F0A0F101081548164969
:101DF000086040F2E7311448C160C0F80480002157
:101E000001618160816100F0FBFC064696B90E48D5
:101E100000F06AFD06466EB91E2000F03DF8102C59
:101E200007D2002221461E2000F046F80748046031
:101E300000E00126304608B0BDE8F081403802409D
:101E400040420F000008004004040020A0000020D1
:101E500008B500BF002000900E48006840F48040A4
:101E60000C4908600846006800F48040009000BFFC
:101E700000BF00BF00200090081F006840F08050A5
:101E8000091F08600846006800F08050009000BFFD
:101E900000BF08BD4438024001460846002809DB5F
:101EA00000F01F0301229A4043099B0003F1E02345
:101EB000C3F8002100BF70472DE9F05F80460D4652
:101EC0001646002702F088F9074639462A46334667
:101ED00001F00700C0F1070ABAF1040F02D94FF070
:101EE000040A01E0C0F1070AD14600F1040ABAF180
:101EF000070F02D24FF0000A01E0A0F1030AD44616
:101F00004FF0010A0AFA09FAAAF1010A0AEA020ADA
:101F10000AFA0CFA4FF0010B0BFA0CFBABF1010BB8
:101F20000BEA030B4AEA0B042146404602F05CF937
:101F3000BDE8F09F00BF00F00702064B19684FF69E
:101F4000FF031940044B0B4343EA0221014B196084
:101F500000BF70470CED00E00000FA0538B5002422
:101F600000BF002000901D48006840F080501B49D1
:101F700008600846006800F08050009000BF00BF75
:101F8000012017490864FFF7D9FE044607E0FFF770
:101F9000D5FE001BB0F57A7F01D9032038BD11486A
:101FA000406800F48030B0F5803FF0D101200C494A
:101FB0004864FFF7C3FE044607E0FFF7BFFE001BBF
:101FC000B0F57A7F01D90320E8E70648406800F4BD
:101FD0000030B0F5003FF0D10020DFE7403802408C
:101FE00000000E420070004070B504460D460CB96A
:101FF000012070BD5848006800F00F00A84209D2C7
:1020000055490D700846006800F00F00A84201D045
:102010000120EEE7207800F0020002281DD1207890
:1020200000F00400042805D14C48006840F4E0505A
:102030004A490860207800F00800082805D1474880
:10204000006840F46040454908604448006820F05A
:10205000F000A168084341490860207800F00100C1
:10206000A8B36068012807D13C4808380068C0F36D
:102070004040B8B90120BCE76068022802D060681F
:10208000032807D1354808380068C0F3406048B9D4
:102090000120AEE7314808380068C0F3400008B9B5
:1020A0000120A6E72D48006820F00300616808437E
:1020B0002A490860FFF742FE064609E0FFF73EFEA8
:1020C000801B41F28831884202D9032091E707E062
:1020D0002248006800F00C006168B0EB810FEDD180
:1020E0001D48006800F00F00A84209D91A490D7078
:1020F0000846006800F00F00A84201D0012078E7F0
:10210000207800F00400042807D11448006820F467
:10211000E050E168084311490860207800F00800A9
:10212000082808D10D48006820F46040216940EA81
:10213000C1000A49086000F061F808490968C1F364
:102140000311074A515CC840064908600648006808
:10215000FFF724FE00204CE7003C02400838024014
:102160003C480008A8000020A00000200F220260C8
:102170000D4A126802F0030242600B4A126802F034
:10218000F0028260084A126802F4E052C260064A15
:10219000126802F46042D2080261044A126802F036
:1021A0000F020A607047000008380240003C0240FD
:1021B0000148006870470000A800002000B5FFF744
:1021C000F7FF04490968C1F38221034A515CC84002
:1021D00000BD0000083802404C48000800B5FFF779
:1021E000E7FF04490968C1F34231034A515CC84022
:1021F00000BD0000083802404C4800082DE9F047B7
:10220000002400250026A1462548006800F00C00A7
:1022100020B1042805D008283AD105E0DFF88490E1
:1022200039E0DFF8849036E01D48001F006800F0B8
:102230003F041B48001F006800F4800078B11A4872
:102240001749091F0968C1F38811A0FB01700146F5
:10225000224600233846FDF7C7FF05460EE0114829
:102260000F49091F0968C1F38811A0FB01700146DD
:10227000224600233846FDF7B7FF05460848001FF1
:102280000068C0F30140401C4600B5FBF6F902E0CF
:10229000DFF8109000BF00BF4846BDE8F08700009F
:1022A000083802400024F400001BB700F8B50446CB
:1022B0000CB90120F8BD207800F00100002874D08E
:1022C000F948006800F00C0004280DD0F6480068BA
:1022D00000F00C00082813D1F348001F006800F438
:1022E0008000B0F5800F0BD1EF4808380068C0F3CC
:1022F0004040002859D06068002856D10120D9E715
:1023000000BF6068B0F5803F08D1E7480838006832
:1023100040F48030E449083908601EE06068B0F598
:10232000A02F0DD1E0480838006840F48020DE4935
:10233000083908600846006840F4803008600CE006
:10234000D9480838006820F48030D7490839086037
:102350000846006820F48020086000BF606890B1E3
:10236000FFF7ECFC054606E0FFF7E8FC401B64289D
:1023700001D903209EE7CC4808380068C0F34040EC
:102380000028F1D011E0FFF7D9FC054606E0FFF781
:10239000D5FC401B642801D903208BE7C2480838CC
:1023A0000068C0F340400028F1D1207800F002001E
:1023B00002285FD1BC48006800F00C0058B1BA4850
:1023C000006800F00C0008281CD1B748001F006806
:1023D00000F48000B0B9B44808380068C0F3400089
:1023E00020B1E068012801D0012063E7AE48083839
:1023F000006820F0F800216940EAC100AA490839C4
:10240000086037E0E06800B30120A8490860FFF7E2
:1024100095FC054606E0FFF791FC401B022801D918
:10242000032047E7A04808380068C0F340000028B0
:10243000F1D09D480838006820F0F800216940EA92
:10244000C10099490839086014E0002097490860E4
:10245000FFF774FC054606E0FFF770FC401B0228FE
:1024600001D9032026E7904808380068C0F34000EF
:102470000028F1D1207800F0080008282CD16069EC
:10248000A8B101208A490860FFF758FC054606E01C
:10249000FFF754FC401B022801D903200AE78248B9
:1024A0006C300068C0F340000028F1D014E0002038
:1024B0007F490860FFF742FC054606E0FFF73EFC57
:1024C000401B022801D90320F4E677486C300068ED
:1024D000C0F340000028F1D1207800F00400042867
:1024E00070D1002770483830006800F0805090B9F3
:1024F00000BF002000906C483830006840F08050E9
:102500006949383108600846006800F08050009042
:1025100000BF00BF01276748006800F48070B0B9B1
:102520006448006840F4807062490860FFF706FC68
:10253000054606E0FFF702FC401B022801D90320F4
:10254000B8E65C48006800F480700028F2D000BF54
:10255000A068012808D154486830006840F00100A4
:102560005149683108601DE0A06805280DD14E482A
:102570006830006840F004004B4968310860084644
:10258000006840F0010008600CE0474868300068CF
:1025900020F001004449683108600846006820F0D6
:1025A0000400086000BFA068A8B1FFF7C7FB05469C
:1025B00009E0FFF7C3FB401B41F28831884202D992
:1025C000032077E626E0384868300068C0F3400012
:1025D0000028EED013E0FFF7B1FB054608E0FFF757
:1025E000ADFB401B41F28831884201D9032061E6EE
:1025F0002D4868300068C0F340000028EFD1012F5B
:1026000007D129483830006820F0805026493831F9
:10261000086000BFA069002845D02348006800F08A
:102620000C0008285DD0A069022845D100201F4970
:102630000866FFF783FB054606E0FFF77FFB401BBC
:10264000022801D9032035E6174808380068C0F38E
:1026500040600028F1D1D4E907010843616A40EAEB
:1026600081110122A06AC2EB500041EA00412C20F6
:10267000005D41EA00600C49091F086001200B4918
:102680000866FFF75BFB054606E0FFF757FB401BBC
:10269000022801D903200DE6034808380068C0F37A
:1026A00040600028F1D049E008380240000047426D
:1026B000800E474200700040002021490866FFF765
:1026C0003DFB054606E0FFF739FB401B022801D918
:1026D0000320EFE51B480068C0F340600028F2D1FA
:1026E0002CE0A069012800D1E4E51648001D066829
:1026F000A069012820D006F48001E06981421BD145
:1027000006F03F01206A814216D147F6C070304082
:10271000616AB0EB811F0FD106F440310122A06A3B
:10272000C2EB5000B1EB004F06D106F070612C20D7
:10273000005DB1EB006F01D00120BBE50020B9E5E1
:1027400000004742003802407047704730B50246EB
:102750000B4600BF92F83C00012801D1022030BD99
:10276000012082F83C0000BF022082F83D00106882
:1027700044681068816824F0700418680443106885
:102780004460184D1068A8421BD01068B0F1804F0B
:1027900017D0154D1068A84213D0144D1068A842E8
:1027A0000FD0134D1068A8420BD0124D1068A842EC
:1027B00007D0114D1068A84203D0104D1068A842F0
:1027C00005D121F080015868014310688160012023
:1027D00082F83D0000BF002082F83C0000BF00BF2F
:1027E000BDE7000000000140000400400008004078
:1027F000000C00400004014000400140001800406F
:1028000010B504460CB9012010BD94F83D0028B95C
:10281000002084F83C00204600F026F8022084F8CE
:102820003D00211D206801F0F3F8012084F84600E6
:1028300000BF84F83E0001213F2001554020015592
:102840004120015500BF00BF012084F84200432011
:102850000155442001554520015500BF012084F851
:102860003D000020D0E7000038B504462068B0F1F4
:10287000804F18D100BF002000901948006840F038
:102880000100174908600846006800F00100009048
:1028900000BF00BF002211461C20FFF70DFB1C20CB
:1028A000FFF7FAFA1BE00F492068884217D100BFF2
:1028B000002000900A48006840F0020008490860C3
:1028C0000846006800F00200009000BF00BF002230
:1028D00011461D20FFF7F0FA1D20FFF7DDFA38BD85
:1028E0004038024000040040014691F83D000128B4
:1028F00001D001207047022081F83D000868C068BF
:1029000040F001000B68D8601A4B086898421BD051
:102910000868B0F1804F17D0174B0868984213D061
:10292000164B086898420FD0154B086898420BD098
:10293000144B0868984207D0134B0868984203D09C
:10294000124B086898420CD10868806800F00702B2
:10295000062A0CD00868006840F001000B68186077
:1029600005E00868006840F001000B68186000206E
:10297000C0E70000000001400004004000080040E3
:10298000000C0040000401400040014000180040DD
:102990002DE9F04104460D46002700BF94F83C00A5
:1029A000012802D10220BDE8F081012084F83C001A
:1029B00000BF022084F83D002068866826F0770674
:1029C00026F47F46206886602868502833D00CDCC7
:1029D000202850D004DC00284BD0102851D149E0E9
:1029E000302849D040284CD139E060282DD07028BB
:1029F00007D0B0F5805F03D0B0F5005F41D10DE0A6
:102A000041E0D5E902136A68206801F06DF820689A
:102A1000866846F077062068866034E0D5E90213C0
:102A20006A68206801F060F82068806840F480409F
:102A30002168886027E0EA686968206801F068F822
:102A40005021206801F05BF81DE0EA6869682068A1
:102A500001F071F86021206801F051F813E0EA6894
:102A60006968206801F054F84021206801F047F8B7
:102A700009E000BF00BF00BF2968206801F03FF8EF
:102A800001E0012700BF00BF012084F83D0000BF26
:102A9000002084F83C0000BF384684E7704710B53A
:102AA000044620680069C0F34000D8B12068C068BF
:102AB000C0F34000B0B16FF002002168086101204E
:102AC00020772068806900F0030018B12046FFF7E6
:102AD000E5FF05E0204600F0ADF8204600F0ABF839
:102AE0000020207720680069C0F38000D8B12068FA
:102AF000C068C0F38000B0B16FF0040021680861C5
:102B0000022020772068806900F4407018B12046C8
:102B1000FFF7C4FF05E0204600F08CF8204600F0E7
:102B20008AF80020207720680069C0F3C000D8B17F
:102B30002068C068C0F3C000B0B16FF00800216821
:102B40000861042020772068C06900F0030018B1F4
:102B50002046FFF7A3FF05E0204600F06BF8204673
:102B600000F069F80020207720680069C0F30010A9
:102B7000D8B12068C068C0F30010B0B16FF0100089
:102B800021680861082020772068C06900F440703F
:102B900018B12046FFF782FF05E0204600F04AF812
:102BA000204600F048F8002020772068006900F0F7
:102BB000010058B12068C06800F0010030B16FF02A
:102BC000010021680861204600F036F8206800699D
:102BD000C0F3C01058B12068C068C0F3C01030B155
:102BE0006FF08000216808612046FFF7ADFD206886
:102BF0000069C0F3801058B12068C068C0F380102D
:102C000030B16FF0400021680861204600F0E0F923
:102C100020680069C0F3401058B12068C068C0F354
:102C2000401030B16FF02000216808612046FFF7A6
:102C30008CFD10BD7047704710B50446CE488442E5
:102C400004D1CE480068401CCC490860CC4884427E
:102C50006CD1CC480068F0B9CB480068D8B9CB48F3
:102C6000407A022809D1C748006830B9C3480068D3
:102C7000C74908600120C3490860C448007A012898
:102C800009D1C048006830B9BC480068C049086034
:102C90000220BC490860BB48006888B9BA4800688F
:102CA00001280DD1B948407A012809D1B5480068FA
:102CB00030B9B2480068B64908600220B1490860DE
:102CC000B048006888B9B048006802280DD1AF4804
:102CD000407A022809D1AB48006830B9A74800689B
:102CE000AB4908600120A7490860A648006802288F
:102CF0007ED1A2480068A6490968401AA54909681A
:102D0000884214D29FEDA40AA44880ED000A9FEDEA
:102D1000A40AA44880ED000A00220121A248FFF77E
:102D200007F800220221A048FFF702F81DE19348AE
:102D3000006897490968401A964909689B4A1268D1
:102D40001144884232D29FED940A944880ED000AE3
:102D50009FED930A934880ED000A95480088642807
:102D60000ADA002201219048FEF7E2FF0122022147
:102D70008D48FEF7DDFFF8E08D48008896280ADDD3
:102D8000012211468848FEF7D3FF0022022186481F
:102D9000FEF7CEFFE9E0002201218348FEF7C8FFDD
:102DA000002202218048FEF7C3FFDEE0734800687E
:102DB00077490968401A774909687C4A12681144C2
:102DC0007C4A12681144884216D29FED730A7348F8
:102DD00080ED000A9FED720A724880ED000A002221
:102DE00001217148FEF7A4FF002202216E4800E095
:102DF00055E0FEF79DFFB8E0604800686449096847
:102E0000401A64490968694A12681144694A12689B
:102E10001144694A12681144884233D29FED600A16
:102E20005E4880ED000A654890ED000A5D4880ED3F
:102E3000000A5F48008864280ADA002201215A4803
:102E4000FEF776FF012202215748FEF771FF8CE062
:102E50005748008896280ADD012211465248FEF79D
:102E600067FF002202215048FEF762FF7DE000224A
:102E700001214D48FEF75CFF002202214A48FEF77F
:102E800057FF72E09FED460A464880ED000A3D4834
:102E900000683D49086000203A49086065E039480B
:102EA0000068012861D13548006839490968401A2D
:102EB00043490968884210D2424890ED000A3948D7
:102EC00080ED000A002201213748FEF731FF002281
:102ED00002213548FEF72CFF47E0284800682C49BE
:102EE0000968401A36490968334A12681144884211
:102EF0002DD29FED2B0A2B4880ED000A2C4800882C
:102F000064280ADA002201212748FEF711FF012276
:102F100002212548FEF70CFF27E025480088962867
:102F20000ADD012211462048FEF702FF002202219D
:102F30001D48FEF7FDFE18E0002201211A48FEF7A9
:102F4000F7FE002202211848FEF7F2FE0DE09FED89
:102F5000140A144880ED000A0A4800680A4908600B
:102F600000200849086018490870184920688842FC
:102F700001D1FEF7E9FE10BDE4000020240000208E
:102F80002C010020580000205C000020CC0800200C
:102F900028000020300000200000FA43200000201C
:102FA000000000001C000020000402402C00002053
:102FB000B800002034000020400000203C00002029
:102FC000440000204C000020540000200008004075
:102FD00070477047704710B504460CB9012010BD0A
:102FE000A06900B100E000BF94F83D0028B90020BE
:102FF00084F83C00204600F027F8242084F83D00A7
:103000002068C06820F400502168C860204600F0A5
:1030100063FF2068006920F49040216808612068FF
:10302000406920F02A00216848612068C06840F4A7
:1030300000502168C86000202064202084F83D00F2
:1030400084F83E000020CAE710B586B0044614217B
:1030500001A8FDF713F9AC49206888424ED100BFA2
:1030600000200090A948006840F00040A74908608F
:103070000846006800F00040009000BF00BF00BF9D
:1030800000200090A1481038006840F010009F49CF
:10309000103908600846006800F01000009000BF7A
:1030A00000BF032001900220029000200390032023
:1030B00004900820059001A99548FEF731FD954838
:1030C0009549086000054860002193488160C1600F
:1030D0004FF4806101610021416181614FF4807191
:1030E000C161002101624162FEF746FC08B1FDF7B3
:1030F0006BFE00BF8848A063846302E187492068B3
:10310000884251D100BF002000908048001D006817
:1031100040F010007D49091D08600846006800F075
:103120001000009000BF00BF00BF00200090774853
:103130001038006840F002007449103908600846F1
:10314000006800F00200009000BF00BFC0200190A6
:103150000220029000200390032004900720059095
:1031600001A96F48FEF7DCFC6E486F4908604FF01C
:103170000060486000216C488160C1604FF480614C
:1031800001610021416181614FF48071C1610021C1
:1031900001624162FEF7F0FB08B1FDF715FE00BFCA
:1031A0006148A0638463ACE060492068884251D1E3
:1031B00000BF002000905548006840F4802053492B
:1031C00008600846006800F48020009000BF00BF3F
:1031D00000BF002000904D481038006840F0040007
:1031E0004A49103908600846006800F00400009061
:1031F00000BF00BF4FF44060019002200290002009
:103200000390032004900720059001A94848FEF789
:1032100087FC40487838474908604FF000604860B4
:10322000002144488160C1604FF480610161002148
:10323000416181614FF48071C1610021016241628D
:10324000FEF79AFB08B1FDF7BFFD00BF3948A06348
:10325000846356E038492068884252D100BF00207C
:1032600000902A48001D006840F020002749091DF1
:1032700008600846006800F02000009000BF00BF12
:1032800000BF0020009021481038006840F0400046
:103290001E49103908600846006800F040000090A0
:1032A00000BF00BF4FF48440019002200290002034
:1032B0000390032004900820059001A91F48FEF701
:1032C0002FFC184818381E49086080054860002106
:1032D0001B488160C1604FF4806101610021416140
:1032E00081614FF48071C161002101624162FEF78A
:1032F00043FB08B1FDF768FD00BF1148A06384637C
:1033000000BF06B010BD0000007C00404038024005
:1033100000100240A0600240840200200010014022
:103320000004024040640240E402002000480040E3
:10333000000802404403002000140140001802402D
:10334000A403002070B504460D46164694F83E00CE
:10335000202816D105B10EB9012070BD00BF94F828
:103360003C00012801D10220F7E7012084F83C004D
:1033700000BF0020206332462946204600F0C2FEEE
:10338000EBE70220E9E7000010B504460F4920688A
:103390000968884204D101200D49086000F0E0FB73
:1033A0000C4920680968884204D101200A49086054
:1033B00001F090F9094920680968884204D1012088
:1033C0000749086000F05AFA10BD0000B80100205B
:1033D00000000020400200200800002074010020AE
:1033E00004000020704700BFFEE7000010B50D4844
:1033F0000D4908600920486000210B488160C160C8
:103400004FF40031016100214161017641768176FE
:10341000C17601774177FEF72DF808B1FDF7D4FCAE
:1034200010BD000000640040BC00002008B500BFD3
:10343000002000901E48006840F480001C4908608D
:103440000846006800F48000009000BF00BF00BF85
:10345000002000900846006840F40010086008460C
:10346000006800F40010009000BF00BF0022114669
:103470000C20FEF721FD0C20FEF70EFD0022114668
:103480001120FEF719FD1120FEF706FD002211465E
:103490003920FEF711FD3920FEF7FEFC002211460F
:1034A0003A20FEF709FD3A20FEF7F6FC08BD0000C1
:1034B0003038024000B587B0142102A8FCF7DEFEC8
:1034C00000BF002001904C48006840F010004A49BD
:1034D00008600846006800F01000019000BF00BFBF
:1034E00000BF002001900846006840F040000860DE
:1034F0000846006800F04000019000BF00BF00BF18
:10350000002001900846006840F00100086008466D
:10351000006800F00100019000BF00BF00BF002064
:1035200001900846006840F0020008600846006804
:1035300000F00200019000BF00BF00BF002001901A
:103540000846006840F0080008600846006800F07F
:103550000800019000BF00BF00BF00200190084696
:10356000006840F0040008600846006800F00400AD
:10357000019000BF00BF00BF002001900846006816
:1035800040F0200008600846006800F0200001902C
:1035900000BF00BF00BF002001900846006840F057
:1035A000800008600846006800F08000019000BFBD
:1035B00000BF002203211148FEF7BAFB00220321BD
:1035C0000F48FEF7B5FB0320029001200390002076
:1035D0000490059002A90948FEF7A2FA0320029080
:1035E0000120039000200490059002A90448FEF7F2
:1035F00097FA07B000BD00003038024000140240C6
:103600000004024000B587B00020039004900590AC
:103610000690019002904FF08040144908605920B4
:10362000486000211148816040F2E731C16000210B
:10363000016180218161FFF7E3F808B1FDF7C4FB68
:103640004FF48050039003A90848FFF7A1F908B18F
:10365000FDF7BAFB00200190029001A90348FFF793
:1036600075F808B1FDF7B0FB07B000BDE40000201D
:1036700000B587B00020039004900590069001905B
:1036800002901548154908605920486000211348E8
:10369000816040F2E731C1600021016180218161D8
:1036A000FFF7AEF808B1FDF78FFB4FF480500390A1
:1036B00003A90A48FFF76CF908B1FDF785FB002064
:1036C0000190029001A90548FFF740F808B1FDF705
:1036D0007BFB07B000BD0000000400402C0100206F
:1036E00010B50B480B4908604FF496404860002124
:1036F00008488160C16001610C2141610021816144
:10370000C161FFF768FC08B1FDF75EFB10BD00006A
:10371000007C00407401002010B50A480A49086086
:103720000A484860002108488160C16001610C219D
:10373000416100218161C161FFF74DFC08B1FDF7D6
:1037400043FB10BD00100140B8010020A08601001D
:1037500010B50B480B4908604FF4964048600021B3
:1037600008488160C16001610C21416100218161D3
:10377000C161FFF730FC08B1FDF726FB10BD00006A
:1037800000480040FC01002010B50B480B490860C0
:103790004FF4E1304860002108488160C160016158
:1037A0000C21416100218161C161FFF714FC08B166
:1037B000FDF70AFB10BD000000140140400200208C
:1037C00000BFFEE700BFFEE790ED040AD0ED030A5C
:1037D00030EE600A80ED050A90ED050AD0ED070A8B
:1037E00030EE600AD0ED000A20EE200AD0ED010A8A
:1037F00090ED051A00EE810AD0ED050A90ED071A4A
:10380000F0EE001A41EEC10A90ED061A70EE810A40
:1038100090ED021A01EE200AD0ED080A30EE200ADF
:1038200080ED080A90ED070A80ED060A90ED040A83
:10383000D0ED030A30EE600A80ED070A90ED080A29
:10384000D0ED090AB4EEE00AF1EE10FA03DD90EDD6
:10385000090A80ED080A90ED080AD0ED090AF1EE98
:10386000600AB4EEE00AF1EE10FA05D290ED090A12
:10387000B1EE400A80ED080A70477047002027E04B
:103880001549095CAB2922D1134A411C515CCD2951
:103890001DD10121114A11800F4A011D525C0E4BAE
:1038A000C11C595C42EA01210C4A11801146098869
:1038B00000EE101AB8EE400ADFED090A20EE200AE9
:1038C000DFED080A80EE201A074981ED001A01E0B9
:1038D0001428D5DB00BF704747090020B80000203E
:1038E0000000B44300008046AC00002010B5142254
:1038F00002490348FFF726FD10BD000047090020DC
:10390000740100207047704700B593B0302107A8BC
:10391000FCF7B4FC142102A8FCF7B0FC00BF0020A7
:1039200001902648006840F080502449086008460D
:10393000006800F08050019000BF00BF00BF002071
:1039400001901F48006840F440401D490860084647
:10395000006800F44040019000BF00BF01200790C4
:103960000004089002200D9041050E9106210F9150
:10397000B4211091022111910421129107A8FEF7A0
:1039800095FC08B1FDF720FAFEF7E8FA08B1FDF75B
:103990001BFA0F20029002200390002004904FF4A5
:1039A000A05005904FF480500690052102A8FEF724
:1039B0001BFB08B1FDF708FA13B000BD4038024008
:1039C000007000400548006840F47000034908603A
:1039D0004FF00060014980390860704788ED00E0D1
:1039E00010B50248FFF75BF810BD0000E4000020AE
:1039F00010B50248FFF753F810BD00002C0100205D
:103A000010B50248FFF74BF810BD00000404002079
:103A100010B50268294B98420ED0B0F1804F0BD000
:103A2000274B984208D0274B984205D0264B984206
:103A300002D0264B984203D122F070024B681A4301
:103A40001E4B984220D0B0F1804F1DD01C4B9842A5
:103A50001AD01C4B984217D01B4B984214D01B4BCA
:103A6000984211D01A4B98420ED01A4B98420BD064
:103A7000194B984208D0194B984205D0184B9842E0
:103A800002D0184B984203D122F44072CB681A43FB
:103A900022F080034C6943EA040202608B68C3622F
:103AA0000B688362054B984202D0084B984201D1C3
:103AB0000B6903630123436110BD00000000014056
:103AC0000004004000080040000C004000040140D9
:103AD00000400140004401400048014000180040FF
:103AE000001C00400020004030B50C46816821F4E5
:103AF0007F4142EA032525432943816030BD0A46C0
:103B0000816821F0700142F007031943816070471A
:103B100030B50B461446026A056A25F001050562B8
:103B2000816921F0F00141EA041122F00A021A43EE
:103B30008161026230BD30B50B461446056A25F03E
:103B4000100505628169026A21F4704141EA04317D
:103B500022F0A00242EA03128161026230BD00003D
:103B600010B52DED048B634800786249497840EA2E
:103B70000120C0F30A00604908805E484078C01008
:103B80005C49897840EA4110C0F30A005A494880EC
:103B90005848807880115749C97840EA81005549D2
:103BA000097940EA8120C0F30A00534988805148CE
:103BB000007940104F49497940EAC110C0F30A002A
:103BC0004D49C8804B484079001180080872494827
:103BD0004079C0F3011048724648007C4549497C51
:103BE00040EA012000B244494881084690F90800A3
:103BF000012804D002283CD0032857D11CE03E49BC
:103C0000B1F90A10A1F58060FCF7CBFC41EC190B6F
:103C10009FED3A0B53EC102BFCF754FC41EC180BC6
:103C2000384890ED000B53EC102B51EC180BFCF7BF
:103C3000D7FB354A03C23AE02F49B1F90A10A1F582
:103C40008060FCF7AEFC41EC190B9FED2C0B53ECA4
:103C5000102BFCF737FC41EC180B2A4890ED000BB9
:103C600053EC102B51EC180BFCF7BAFB264A03C29D
:103C70001DE02149B1F90A10A1F58060FCF791FC23
:103C800041EC190B9FED1D0B53EC102BFCF71AFCAC
:103C900041EC180B1B4890ED000B53EC102B51EC32
:103CA000180BFCF79DFB184A03C200E000BF00BFE1
:103CB000114890F90900012804D002280ED00328E9
:103CC00012D105E09FED110B0E4880ED000B0CE0CA
:103CD0009FED100B0B4880ED000B06E09FED0F0BE6
:103CE000084880ED000B00E000BF00BFBDEC048B76
:103CF00010BD0000D8080020CC0800200000000003
:103D000000A0844070000020780000200000000027
:103D10000080764000000000008066400000000047
:103D20000080564070B506460025B46B2068406997
:103D3000C0F3C01594F83D00212805D125B100201D
:103D4000E084204600F0B4F820684069C0F3801594
:103D500094F83E00222805D125B10020E0852046B8
:103D600000F070F8206C40F0100020642046FFF74F
:103D700031F970BD70B50546AC6B2868006800F479
:103D80008070002842D1E08500BF00BF21680C315F
:103D900051E8001F21F4807021680C3141E80002D5
:103DA000002AF3D100BF00BF00BF2168143151E8E1
:103DB000001F21F001002168143141E80002002AAF
:103DC000F3D100BF00BF00BF2168143151E8001FCC
:103DD00021F040002168143141E80002002AF3D1AB
:103DE00000BF202084F83E00206B01280ED100BFC8
:103DF00000BF21680C3151E8001F21F0100021683C
:103E00000C3141E80002002AF3D100BF206B0128E9
:103E100004D1A18D2046FFF7DCF802E02046FFF731
:103E2000B3FA70BD70B50546AC6B206B012805D1A7
:103E3000A08D41082046FFF7CCF802E02046FFF7AE
:103E4000D1FA70BD00BF00BF02680C3252E8002FEB
:103E500022F4907102680C3242E80013002BF3D177
:103E600000BF00BF00BF0268143252E8002F22F0EA
:103E700001010268143242E80013002BF3D100BFA5
:103E8000016B01290ED100BF00BF02680C3252E85D
:103E9000002F22F0100102680C3242E80013002BC0
:103EA000F3D100BF202180F83E100021016370474C
:103EB00000BF00BF02680C3252E8002F22F0C001A0
:103EC00002680C3242E80013002BF3D100BF20211E
:103ED00080F83D10704700002DE9F84F0446206837
:103EE000006920F44050E1680843216808612169B5
:103EF000A068084361690843E169084300902068AD
:103F0000C06849F20C618843009908432168C86081
:103F10002068406920F44070A16908432168486125
:103F200076492068884203D075492068884203D1C9
:103F3000FEF754F9814602E0FEF740F98146E06958
:103F4000B0F5004F6CD102206168A0FB0150034620
:103F50001920A9FB007001462A463846FCF744F9AF
:103F60006421B0FBF1F04FEA001A02206168A0FB67
:103F700001510B461920A9FB00712A463846FCF76F
:103F800033F9834602206168A0FB015003461920E3
:103F9000A9FB00712A463846FCF726F96421B0FBDC
:103FA000F1F000EBC00101EB0010ABEB800032211F
:103FB00001EBC0006421B0FBF1F000F0F8000AEB67
:103FC000400A02206168A0FB015003461920A9FBAA
:103FD000007001462A463846FCF706F9834602205F
:103FE0006168A0FB015003461920A9FB00712A4615
:103FF0003846FCF7F9F86421B0FBF1F000EBC001A2
:1040000001EB0010ABEB8000322101EBC00064211A
:10401000B0FBF1F000F007005044216888606AE0CE
:1040200004206168A0FB015003461920A9FB007021
:1040300001462A463846FCF7D7F8824604206168D4
:10404000A0FB015003461920A9FB007001462A4637
:104050003846FCF7C9F86421B0FBF1F000EBC00171
:1040600001EB0010AAEB8000322101EB001064216B
:10407000B0FBF1F000F0F00A04206168A0FB0170D1
:1040800003461920A9FB00513A462846FCF7ACF834
:104090006421B0FBF1F00AEB001A04206168A0FB78
:1040A00001510B461920A9FB00712A463846FCF73E
:1040B0009BF8834604206168A0FB01500346192049
:1040C000A9FB007001462A463846FCF78DF86421AA
:1040D000B0FBF1F000EBC00101EB0010ABEB800096
:1040E000322101EB00106421B0FBF1F000F00F0071
:1040F000504421688860BDE8F88F0000001001403E
:104100000014014077B581B0044615460298A062BC
:10411000A58500202064222084F83E002A48A16B57
:10412000C8632A48A16B08642948A16BC8640020B1
:10413000A16B086502AE32682368191D2B46A06B7F
:10414000FDF790FC00BF0020009020680068009000
:1041500020684068009000BF00BF00BF002084F8C6
:104160003C0000BF206970B100BF00BF21680C3166
:1041700051E8001F41F4807021680C3141E80002D1
:10418000002AF3D100BF00BF00BF2168143151E8FD
:10419000001F41F001002168143141E80002002AAB
:1041A000F3D100BF00BF00BF2168143151E8001FE8
:1041B00041F040002168143141E80002002AF3D1A7
:1041C00000BF002004B070BD753D0008253E00080A
:1041D000253D000800BFFEE702480068C0F302204A
:1041E000704700000CED00E010B5002804DB0A0762
:1041F000130E054A135406E00A07140E034A00F092
:104200000F031B1FD45410BD00E400E018ED00E0C4
:1042100002E008C8121F08C1002AFAD1704770478F
:10422000002001E001C1121F002AFBD170470000ED
:104230004A780B7842EA032200EE102AB8EEC00A50
:10424000DFED0B0A20EE200AD0ED0D0A80EE201AD9
:1042500080ED021A90ED020A80ED060A90ED060A42
:1042600080ED070A90ED020A80ED080A7047000011
:104270000000B4432DED048B82B0FDF771FDFFF714
:1042800043FBFFF717F9FFF7D1F8FFF7AFF8FFF798
:1042900043FAFFF779FAFFF7B5F9FFF7E9F9FFF706
:1042A00057FAFFF71DFAF048FCF7CEFA0020EF4965
:1042B000087081F8900081F8200181F8B00181F840
:1042C000400281F8D002012081F86003002081F8CB
:1042D000F003FCF79FFB1222E549E648FFF732F8AE
:1042E00000F072FAE448FEF7FFFAE448FEF7FCFA41
:1042F000FFF7FCFAB6E100BFE14800680028FBD0F8
:10430000E0480068002872D1DF48B0F90400A0F549
:104310008060642811DDDD480068FCF753F941EC4A
:10432000190B9FEDDB0B53EC102BFBF7B2FF41ECAD
:10433000180BFCF78BF9D5490860D348B0F9040095
:10434000A0F5806010F1640F11DAD0480068FCF726
:1043500039F941EC190B9FEDCE0B53EC102BFCF708
:1043600039F841EC180BFCF771F9C8490860C648E8
:10437000B0F90600A0F58060642811DDC648006829
:10438000FCF720F941EC190B9FEDC40B53EC102BFB
:10439000FCF720F841EC180BFCF758F9BE4908600F
:1043A000B948B0F90600A0F5806010F1640F11DA89
:1043B000B9480068FCF706F941EC190B9FEDB70B03
:1043C00053EC102BFBF765FF41EC180BFCF73EF9A3
:1043D000B1490860AC48B0F90000A0F580606428DD
:1043E00006DD9FEDB00AB04880ED000A13E083E0DF
:1043F000A548B0F90000A0F5806010F1640F05DA5F
:104400009FEDAA0AA84880ED000A04E09FEDA80AE3
:10441000A54880ED000A9C48B0F90200A0F5806034
:1044200064280ADD00220121A248FDF781FC012257
:104430000221A048FDF77CFC1CE09348B0F9020083
:10444000A0F5806010F1640F0ADA01221146994844
:10445000FDF76EFC002202219648FDF769FC09E099
:10446000002201219348FDF763FC002202219148BC
:10447000FDF75EFC9048884991ED000A00F0B0F924
:104480008D489030814991ED000A00F0A9F98A48E1
:104490009038854991ED000A00F0BDF97A48407ADC
:1044A000012805D19FED850A854880ED000A04E0CA
:1044B0009FED7F0A824880ED000A6C48804991EDAB
:1044C000000A00F0A8F9694890307D4991ED000A92
:1044D00000F0A1F97B487A4991ED000AB1EE400A5B
:1044E00000F099F977489030754991ED000AB1EEE6
:1044F000400A00F090F96AE062480068022835D16D
:104500005A48714991ED000A00F085F957489030FA
:104510006D4991ED000A00F07EF96A486A4991ED13
:10452000000AB1EE400A00F076F96648903066491C
:1045300091ED000AB1EE400A00F06DF95E48903846
:10454000624991ED000A00F066F95B489FED580A58
:1045500000F046F9584890309FED550A00F040F9B8
:104560005B489FED530A00F056F930E0454800687B
:1045700001282CD13D489FED4E0A00F04CF93B48F4
:1045800090309FED4B0A00F046F94E489FED480AE7
:1045900000F041F94B4890309FED450A00F03BF99F
:1045A00045489038494991ED000A00F034F94248F5
:1045B0009FED3F0A00F014F93F4890309FED3C0A10
:1045C00000F00EF942489FED3A0A00F009F9274839
:1045D00090ED820ABDEEC00A10EE100A00B2009003
:1045E000224890ED5E0ABDEEC00A10EE100A03B23A
:1045F0001E4890ED3A0ABDEEC00A10EE100A02B253
:104600001A4890ED160ABDEEC00A10EE100A01B26B
:104610001548FCF751F92E4890ED160ABDEEC00A78
:1046200010EE100A00B20090104890EDEE0ABDEEB8
:10463000C00A10EE100A03B20C4890EDCA0ABDEE93
:10464000C00A10EE100A02B2084890EDA60ABDEEAC
:10465000C00A10EE100A01B20348FCF769F9012004
:10466000FDF74AFA47E60000BC0000204C04002099
:10467000D8080020B8010020E40000202C01002010
:104680000000002058000020CC080020100000206E
:10469000000000000000D03F14000020333333330B
:1046A0003333C33F0000C842180000200000C8C2D6
:1046B00000000000000402401C07002000409C4550
:1046C0000C0000206C050020200000201C000020B1
:1046D0003C08002010B588B000244FE02A4801199A
:1046E0001F226846FBF7B1FD9DF80000FF2844D16A
:1046F0009DF80100AA2840D19DF8020055283CD120
:104700009DF80300992838D1204901980860204974
:10471000029808601F49039808601F4904980860C0
:104720009DF814001D4908709DF815001C4908707B
:104730009DF816001B4908709DF817001A4908706B
:104740009DF81800194908709DF81900184908705B
:104750009DF81A00174908709DF81B00164908704B
:104760009DF81C00154908709DF81D00144908703B
:104770009DF81E001349087002E0641C3E2CADDB5E
:1047800000BF08B010BD0000090900208000002013
:1047900084000020880000208C0000209000002071
:1047A000910000209200002093000020940000203F
:1047B000950000209600002097000020980000201F
:1047C000990000209A00002010B53E2202490348BB
:1047D000FEF7B8FD10BD00000909002040020020CE
:1047E00000B5B0EE402A024682ED1D2A92ED0A0A7B
:1047F00082ED1C0A02F16400FEF7E6FF92ED210A49
:1048000082ED120A92ED030A82ED110A02F13800DC
:10481000FEF7DAFF00BD00B5B0EE402A024682ED99
:10482000122A92ED030A82ED110A02F13800FEF716
:10483000CBFF00BD00061016000610160000000099
:104840000000000001020304060708090000000040
:10485000010203047448000800000020BC000000AE
:104860001042000830490008BC000020A40C0000E1
:1048700020420008000000000000000000000000CE
:104880000000000000000000000000000000000028
:104890000000000000000000000000000000000018
:1048A000C8000000E8030000E80300000000C8C2E0
:1048B00000003443E8030000F4010000E8030000B6
:1048C0000000C8C2000034430000000000000000E7
:1048D00003000000000000000000000000000000D5
:1048E0000000000000000000008076400000000092
:1048F00000000000000000000000000000000000B8
:1049000000000000000000000000000000000000A7
:104910000000000010000000010000000024F4006E
:104920000000000000000000000000000000000087
:04000005080001AD41
:00000001FF
