:020000040800F2
:10000000A00B0020C501000835320008432F00086E
:100010003132000851060008093A000800000000CB
:10002000000000000000000000000000ED320008A9
:10003000C30B000800000000EB320008EF3200089C
:10004000DF010008DF010008DF010008DF01000810
:10005000DF010008DF010008DF010008DF01000800
:10006000DF010008DF010008DF010008DF010008F0
:10007000DF010008DF010008DF010008DF010008E0
:10008000DF010008DF010008DF010008DF010008D0
:1000900055060008DF010008DF010008DF01000845
:1000A000DF010008DF010008DF010008DF010008B0
:1000B000C9330008D9330008E9330008DF0100081C
:1000C000DF010008DF010008DF010008DF01000890
:1000D000DF010008DF010008DF010008DF01000880
:1000E000DF010008DF010008DF010008DF01000870
:1000F000DF010008DF010008DF010008DF01000860
:10010000DF010008DF010008DF010008DF0100084F
:10011000DF010008DF010008DF010008DF0100083F
:10012000DF010008990A0008A90A0008DF01000899
:10013000DF010008DF010008DF010008DF0100081F
:10014000DF010008DF010008DF010008DF0100080F
:10015000DF010008DF010008DF010008DF010008FF
:10016000DF010008DF010008DF010008DF010008EF
:10017000DF010008DF010008DF01000800000000C7
:10018000DF010008DF010008DF010008DF010008CF
:10019000DF010008DF010008DF010008DF010008BF
:1001A0000000000000000000DF010008DFF810D0B0
:1001B00000F03CFA00480047A93A0008AFF300807D
:1001C000A00B00200648804706480047FEE7FEE7F0
:1001D000FEE7FEE7FEE7FEE7FEE7FEE7FEE7FEE7F7
:1001E000AD330008AD0100082DE9F05F05460020A1
:1001F00092469B4688460646814640241BE0284698
:1002000041464746224600F05AF953465A46C01A1C
:10021000914110D311461846224600F041F92D1A9B
:1002200067EB01084F4622460120002100F038F913
:1002300017EB00094E41201EA4F10104DFDC484603
:1002400031462A464346BDE8F09F40EA01039B073A
:1002500003D009E008C9121F08C0042AFAD203E03B
:1002600011F8013B00F8013B521EF9D27047D2B29F
:1002700001E000F8012B491EFBD270470022F6E78F
:1002800010B513460A4604461946FFF7F0FF20460C
:1002900010BD2DE9FE4F804681EA0300C00F0C46D9
:1002A000009021F0004123F00045B8EB0200A94185
:1002B00005D24046214690461C460B46024623F096
:1002C0000040104347D0270DC7F30A00C3F30A517B
:1002D0000290401A019040286BDAC3F3130040F4F7
:1002E000801B0098924620B10023D2EB030A63EBF7
:1002F0000B0B01985946C0F14002504600F0D0F86F
:1003000006460D4650465946019A00F0E8F810EBB3
:1003100008006141002487EA115284EAE7731A4316
:1003200040D0009A62B3019A012A4FEA075215DCC5
:10033000001B61EB02014FF0004202EA0752CDE9D7
:100340000042001C41F5801132462B4600F01FF997
:1003500003B0BDE8F08F40462146F9E7001B61EB92
:100360000201001C41F5801300185B412018A2F522
:10037000001747EB030140EAD570B6196D4111E053
:100380006D084FEA360645EAC0754FEA0752001B72
:1003900061EB0201001C41F5801149084FEA300071
:1003A0000019514132462B4603B0BDE8F04F00F032
:1003B000DFB80098012240000023D0EB020263EB7B
:1003C000E073009821464FEAE074B8EB000061EB5F
:1003D0000401E9E783F000435BE781F0004158E75F
:1003E00000F0004230F000400AD0C10D01F560710C
:1003F000C0F3160042EA0151C2084007114370479A
:10040000002001467047000030B5041E71F1000461
:1004100004DB4FF00044404264EB0101141E73F111
:10042000000405DB1C464FF00043524263EB04031B
:100430008B4208BF824230BD30B5041E71F100040A
:1004400004DB4FF00044404264EB0101141E73F1E1
:10045000000405DB1C464FF00043524263EB0403EB
:10046000994208BF904230BD01F0004330B421F002
:10047000004150EA010206D00A0DA2F56072C1F3F4
:100480001301002A02DC30BC00207047440F44EA0C
:10049000C104C100E01830BC00EBC25000F031B81C
:1004A000202A04DB203A00FA02F100207047914034
:1004B000C2F1200320FA03F3194390407047202A29
:1004C00004DB203A21FA02F00021704721FA02F3FE
:1004D000D040C2F120029140084319467047202ABB
:1004E00006DBCB17203A41FA02F043EAE07306E05C
:1004F00041FA02F3D040C2F120029140084319466C
:1005000070470029A8BF7047401C490008BF20F071
:100510000100704710B4B0FA80FC00FA0CF050EA09
:10052000010404BF10BC704749B1CCF1200421FA8A
:1005300004F411FA0CF118BF012121430843A3EB85
:100540000C01CB1D4FEA00614FEA102042BF002092
:1005500010BC704700EBC35010440029A4BF10BC6E
:100560007047401C490008BF20F0010010BC7047D4
:1005700010B5141E73F1000408DA401C41F10001AB
:1005800092185B411A4301D120F0010010BD2DE902
:10059000F04D92469B4611B1B1FA81F202E0B0FAF9
:1005A00080F220329046FFF77BFF04460F4640EA78
:1005B0000A0041EA0B0153465A46084313D011463C
:1005C00053EA010019D0C8F140025046FFF777FF07
:1005D00005460E46504659464246FFF761FF08431E
:1005E00005D0012004E020463946BDE8F08D00200A
:1005F000054346EAE0762C4337430A986305E40A4C
:10060000A0EB08000022FD0A44EA47540A3002D554
:1006100000200146E9E7010510196941DDE90845B7
:1006200000196941BDE8F04DA2E70000064C074DF6
:1006300006E0E06840F0010394E8070098471034B2
:10064000AC42F6D3FFF7B6FDA4400008C440000852
:1006500000BFFEE710B5024800F0E3FC10BD00004B
:100660008C00002010B58AB004460020059006904A
:1006700001200790002000900190029003900490C8
:10068000012008900E2009906946204600F05EFB8C
:1006900008B100F097FA204600F015FF08B100F00D
:1006A00091FA0221204600F090FA08B100F08AFA8F
:1006B00000200AB010BD00000FB410B5049818B99E
:1006C0000349029800F07EF810BC5DF814FB0000AE
:1006D000540000202DE9F04188B080460C461546B4
:1006E0001E460E9F08200690800102900020049074
:1006F0000590200A8DF80000E0B28DF80100280A6C
:100700008DF80200E8B28DF80300300A8DF804007D
:10071000F0B28DF80500380A8DF80600F8B28DF8B1
:10072000070000BF404600F061FC0028FAD0064BED
:100730006A4602A9404600F05DFA08B100F042FAAC
:1007400008B0BDE8F0810000500000202DE9F04124
:1007500088B080460C4615461E460E9F082006901F
:1007600040F2FF100290002004900590200A8DF8BE
:100770000000E0B28DF80100280A8DF80200E8B20E
:100780008DF80300300A8DF80400F0B28DF80500F2
:10079000380A8DF80600F8B28DF8070000BF404611
:1007A00000F024FC0028FAD0054B6A4602A9404616
:1007B00000F020FA08B100F005FA08B0BDE8F081B9
:1007C0005000002070B505460E46A5F20124002C0D
:1007D00029DB082C27DA04EBC400144901EB0010D4
:1007E0004068322815DA04EBC401104A02EB01100C
:1007F000314603F037F904EBC4000C4901EB00105B
:100800004068401C04EBC401084A02EB0111486037
:1008100007E004EBC401054A02EB0110314600F089
:1008200091F8002070BD0120FCE70000B402002018
:10083000002071E0B2EE0E0A00EBC001384A02EB74
:10084000011181ED0E0AB7EE000A00EBC00102EBC8
:10085000011181ED0F0AB7EE000A00EBC00102EBB7
:10086000011181ED100A9FED2F0A00EBC00102EB90
:10087000011181ED170A9FED2C0A00EBC00102EB7C
:10088000011181ED190A9FED290A00EBC00102EB6D
:10089000011181ED1A0A9FED250A00EBC00102EB60
:1008A000011181ED1B0A9FED220A00EBC00102EB52
:1008B000011181ED220A9FED1F0A00EBC00102EB3E
:1008C000011181ED230A00EBC00102EB011109784F
:1008D00041B99FED190A00EBC00102EB011181ED56
:1008E0000C0A0FE000EBC0010D4A02EB0111097880
:1008F000012907D19FED110A00EBC00102EB0111A4
:1009000081ED0C0A9FED0E0A00EBC001044A02EBD8
:10091000011181ED0D0A401C08288BDB7047000097
:10092000B402002000401C460000A042000000006D
:1009300000409C4500007A442CA0994100001042E0
:100940000000004670B52DED028B04460D46687818
:10095000297840EA012000EE100AB8EEC00ADFED67
:10096000490A20EE200AD4ED0D0A80EE201A84ED0B
:10097000021AE878A97840EA012000B200EE100AD5
:10098000B8EEC00A84ED030A6879297940EA0120AB
:1009900000B200EE100AB8EEC00A84ED040A94ED2D
:1009A000070A84ED060A94ED020A84ED070A94ED25
:1009B000070AD4ED060A30EE600A10EE101A084657
:1009C000FFF70EFD41EC180B9FED2F0B53EC102B96
:1009D000FFF732FD03D2606A401E606216E094EDBC
:1009E000070AD4ED060A30EE600A10EE101A084627
:1009F000FFF7F6FC41EC180B9FED250B53EC102B89
:100A0000FFF702FD02D2606A401C606294ED090AA1
:100A1000B8EEC00ADFED1B0A20EE200A84ED0A0AB8
:100A200094ED070AD4ED080A30EE600AD4ED0A0A04
:100A300030EE200A84ED0A0A94ED0A0AD4ED0C0A7D
:100A400080EE201A84ED0A1A94ED030AD4ED0C0A04
:100A500080EE201A84ED0B1A4FF4B471606A48439B
:100A600000EE100AB8EEC00AD4ED070A30EE200AF4
:100A7000D4ED080A30EE600A84ED050ABDEC028B65
:100A800070BD00000000B44300000000008066401C
:100A900000000000008066C010B5024800F04AFD6A
:100AA00010BD00001402002010B5024800F042FD05
:100AB00010BD0000B401002001460878103818234A
:100AC000B0FBF3F20848805CC865032A05D90868C2
:100AD0006FF30900001D886503E008686FF30900E3
:100AE0008865886D7047000084400008014600203A
:100AF0008A6A8B69CBB932B1012A0DD0022A03D0A0
:100B0000032A10D10EE000BFCB6A03F08073B3F16B
:100B1000807F00D1012007E0CB6AB3F1C07F00D114
:100B2000012001E000E000BF34E08B69B3F5005F15
:100B30001AD132B1012A07D0022A03D0032A11D1D7
:100B40000AE000BF01200EE0CB6A03F08073B3F12E
:100B5000807F00D1012006E0CB6AB3F1C07F00D1D5
:100B6000012000E000BF15E032B1012A05D0022AC1
:100B700004D0032A0CD103E000BF00BF012008E02D
:100B8000CB6A03F08073B3F1807F00D1012000E0D5
:100B900000BF00BF704730B50468246824F4802487
:100BA00005682C60046863608468402C04D1046884
:100BB000A2600468E16003E00468A1600468E26088
:100BC00030BD704772B600BFFEE710B5024692F81E
:100BD0002030012B01D0022B06D110684069084358
:100BE00014686061002010BD506A40F4802050629B
:100BF0000120F8E7F0B504460D461E4694F8207033
:100C000020688368A86800B900E000BF012F01D008
:100C1000022F7CD103F0806030B903F0006018B976
:100C200003F08050002873D0C3F30161022905D975
:100C3000606A40F4000060620120F0BD012088403D
:100C40003060A86860B9B5F800C0E86840EA4C5C5C
:100C5000206800F5C07000EB0110C0F800C00FE084
:100C6000D5E901C040EACC00D5F80CC040EA0C0040
:100C7000D4F800C00CF5C07C0CEB011CCCF80000D3
:100C8000D5F810C0206800F5C07000EB0110C0F866
:100C900004C0287D01280ED1206800F5C07000EB4B
:100CA0000110406840F4807C206800F5C07000EBC3
:100CB0000110C0F804C0D079000692F806C040EADE
:100CC0000C4092F805C040EA0C2C10794CEA000C5C
:100CD000206800F5C07000EB0110C0F80CC0D0789F
:100CE000000692F802C040EA0C4092F801C040EAC7
:100CF0000C2092F800C040EA0C00D4F800C00CF5BB
:100D0000C07C0CEB011CCCF80800206801E016E068
:100D10000FE000F5C07000EB0110006840F0010C1E
:100D2000206800F5C07000EB0110C0F800C0002082
:100D300083E7606A40F40010606201207DE7606A2A
:100D400040F480206062012077E70000F0B504469F
:100D50000A46216894F82050012D01D0022D7ED141
:100D6000424901F50071086840F001000860086818
:100D700020F47C5008600868566A40EA0620086043
:100D8000107D00F01F06012000FA06F3C8699843A1
:100D9000C861A1F50071D069C8B9D1F80C029843B7
:100DA000C1F80C02908880B2968940EA064601F5A7
:100DB0001070576940F83760108880B2168940EA91
:100DC000064601F51070576900EBC7004660D06910
:100DD000012819D1D1F80C021843C1F80C029088EF
:100DE00080B2168840EA064601F51070576940F84F
:100DF0003760908980B2168940EA064601F5107086
:100E0000576900EBC7004660906928B9D1F8040221
:100E10009843C1F8040204E0D1F804021843C1F871
:100E20000402106928B9D1F814029843C1F81402D9
:100E300004E0D1F814021843C1F81402106A012822
:100E400004D1D1F81C021843C1F81C02D1F80002E9
:100E500020F00100C1F800020020F0BDFFE7606A49
:100E600040F4802060620120F7E700000064004049
:100E7000704770B5044694F82050012D01D0022D22
:100E80007DD151B92068C06800F0030080B9606A64
:100E900040F400106062012070BD2068006900F01D
:100EA000030028B9606A40F4001060620120F3E793
:100EB000206800F5D87000EB0110006800F0040015
:100EC0009060906840B9206800F5D87000EB011080
:100ED0000068400D106007E0206800F5D87000EB56
:100EE00001100068C0085060206800F5D87000EB61
:100EF0000110006800F00200D060206800F5D87092
:100F000000EB0110406800F00F001061206800F550
:100F1000D87000EB0110406800F47F40000A906137
:100F2000206800F5D87000EB01104068000C50619B
:100F3000206800F5D87000EB0110806818702068F8
:100F400000F5D87000EB0110806800F47F40000AC3
:100F50005870206800F5D87000EB0110806800F42C
:100F60007F00000C9870206800F5D87000EB01102D
:100F70008068000ED870206800F5D87000E02FE07F
:100F800000EB0110C0681871206800F5D87000EB04
:100F90000110C06800F47F40000A5871206800F515
:100FA000D87000EB0110C06800F47F00000C98714D
:100FB000206800F5D87000EB0110C068000ED871F1
:100FC00031B92068C06840F020002668F06005E074
:100FD0002068006940F020002668306100205BE74F
:100FE000606A40F480206062012055E701460020DD
:100FF00091F82020012A01D0022A11D10B689B68A8
:1010000003F0806303B1401C0B689B6803F000632E
:1010100003B1401C0B689B6803F0805303B1401C74
:1010200070472DE9F05F0446002520684669206876
:10103000D0F80490206887682068D0F80CA0206859
:10104000D0F810B02068D0F8188006F00100002811
:1010500055D007F00100C0B101202168886007F079
:10106000020018B1204600F05EFA0EE007F004001E
:1010700010B145F4006508E007F0080010B145F430
:10108000805502E0204600F04DFA07F48070C8B1A8
:101090004FF480702168886007F4007018B1204612
:1010A00000F043FA0EE007F4806010B145F40055FB
:1010B00008E007F4006010B145F4804502E02046E6
:1010C00000F032FA07F48030C8B14FF48030216864
:1010D000886007F4003018B1204600F028FA0EE0CE
:1010E00007F4802010B145F4004508E007F4002023
:1010F00010B145F4803502E0204600F017FA06F002
:10110000080038B10AF0100020B145F40075102035
:101110002168C86006F0040040B10AF0080028B158
:1011200008202168C860204600F0A8F906F00200F7
:1011300038B12068C06800F0030010B1204600F00C
:101140009FF906F0400038B10BF0100020B145F4D3
:10115000806510202168086106F0200040B10BF086
:10116000080028B1082021680861204600F0A8F98D
:1011700006F0100038B12068006900F0030010B1DB
:10118000204600F09EF906F4003040B109F010004E
:1011900028B1102021684860204600F093F906F439
:1011A000803040B109F0080028B10820216848606B
:1011B000204600F0BDF906F4004088B309F00400B1
:1011C00078B306F4807020B108F0010008B145F052
:1011D000010506F4007020B108F0020008B145F0E6
:1011E000020506F4806020B108F0040008B145F063
:1011F000040506F40060A0B108F0700088B108F0A2
:101200007000402817D006DC10280BD020280CD006
:10121000302819D10CE0502810D0602814D110E0EB
:101220001DE019E045F008050FE045F010050CE061
:1012300045F0200509E045F0400506E045F0800551
:1012400003E045F4807500E000BF00BF20688069BE
:1012500020F07000216888610420216848602DB169
:10126000606A284360622046FFF702FEBDE8F09FF7
:1012700070B504460CB9012070BD94F8200010B977
:10128000204600F0AFF82068006820F002002168D6
:10129000086000F057FC05460DE000F053FC401BD1
:1012A0000A2808D9606A40F400306062052084F89A
:1012B00020000120E0E72068406800F002000028DC
:1012C000EBD12068006840F001002168086000F060
:1012D00039FC05460DE000F035FC401B0A2808D912
:1012E000606A40F400306062052084F8200001202C
:1012F000C2E72068406800F001000028EBD0207EA3
:10130000012806D12068006840F08000216808604C
:1013100005E02068006820F0800021680860607E99
:10132000012806D12068006840F04000216808606C
:1013300005E02068006820F0400021680860A07E79
:10134000012806D12068006840F02000216808606C
:1013500005E02068006820F0200021680860E07E39
:10136000012806D12068006820F01000216808607C
:1013700005E02068006840F0100021680860207FC8
:10138000012806D12068006840F008002168086044
:1013900005E02068006820F0080021680860607F90
:1013A000012806D12068006840F004002168086028
:1013B00005E02068006820F0040021680860D4E996
:1013C0000201084321690843616908436168491EB5
:1013D00008432168C86100206062012084F8200071
:1013E000002049E710B586B00446142101A8FEF795
:1013F00045FF1F492068884237D100BF0020009078
:101400001C48006840F000701A49086008460068EF
:1014100000F00070009000BF00BF00BF00200090EF
:1014200014481038006840F008001249103908606C
:101430000846006800F00800009000BF00BF0320CD
:1014400001900220029000200390032004900920C4
:10145000059001A9084800F061FA00221146142005
:1014600000F01AFC142000F007FC06B010BD0000CC
:101470000064004040380240000C02407047000009
:1014800010B58AB004460C4920680968884210D11A
:101490000A4B03AA00212046FFF7EBFC08B1FFF737
:1014A00091FB07A807C88DE8070003A80FC8FFF73E
:1014B00003F90AB010BD00008C0000205400002089
:1014C00070477047704770B5044694F820000128B3
:1014D00022D1022084F820002068006820F001005A
:1014E0002168086000F02EFB05460DE000F02AFBA5
:1014F000401B0A2808D9606A40F400306062052069
:1015000084F82000012070BD2068406800F00100D0
:101510000028EBD16062F6E7606A40F40020606268
:101520000120F0E770477047704770477047704779
:1015300070470000F8B50446002000908C48006811
:101540004FF41651B0FBF1F7A56D2E6894F85C10BE
:1015500008208840304098B12068006800F00400FE
:1015600070B12068006820F004002168086094F8D9
:101570005C1008208840A860606D40F00100606544
:1015800094F85C1001208840304068B120684069C0
:1015900000F0800040B194F85C1001208840A86001
:1015A000606D40F00200606594F85C100420884093
:1015B000304068B12068006800F0020040B194F843
:1015C0005C1004208840A860606D40F004006065F5
:1015D00094F85C1010208840304078B32068006890
:1015E00000F0080050B394F85C1010208840A86008
:1015F0002068006800F4802080B12068006800F452
:10160000002028B9206CC8B12046216C884715E01D
:10161000A06C98B12046A16C88470FE02068006854
:1016200000F4807028B92068006820F00800216864
:101630000860206C10B12046216C884794F85C103B
:10164000202088403040002865D02068006800F0E5
:10165000100000285FD094F85C1020208840A8601B
:1016600094F83500052828D12068006820F016007D
:10167000216808602068406920F080002168486186
:10168000206C08B9A06C28B12068006820F0080020
:101690002168086094F85C103F208840A86000BF73
:1016A000002084F8340000BF012084F83500206D4C
:1016B00010B12046216D8847F8BD2068006800F40D
:1016C000802080B12068006800F4002028B9606C98
:1016D00010B12046616C88471DE0E06BD8B1204610
:1016E000E16B884717E02068006800F4807068B9F3
:1016F0002068006820F010002168086000BF00200A
:1017000084F8340000BF012084F83500E06B10B18C
:101710002046E16B8847606D38B3606D00F00100D2
:10172000F0B1052084F835002068006820F0010041
:101730002168086000BF0098401C0090B84200D9A2
:1017400005E02068006800F001000028F3D100BF28
:1017500000BF002084F8340000BF012084F8350069
:10176000E06C10B12046E16C884700BFA4E70000A0
:101770004C0000202DE9F0410446002500F0E2F97C
:10178000074614B90120BDE8F081606A00B100BFCE
:1017900000BF002084F8340000BF022084F8350028
:1017A0002068006820F00100216808600AE000F06D
:1017B000C9F9C01B052805D920206065032084F8DD
:1017C0003500E0E72068006800F001000028EED155
:1017D0002068056821480540D4E901010843E16813
:1017E00008432169084361690843A1690843E16925
:1017F0000843216A08430543606A042803D1D4E9F9
:101800000B0108430543206805602068456925F001
:101810000705606A0543606A04280DD1A06A054384
:10182000E06A48B12046FFF761F928B140206065C1
:10183000012084F83500A6E7206845612046FFF7BF
:101840003BF9064694F85C103F208840B0600020C9
:101850006065012084F83500002094E73F8010F097
:101860002DE9F04704460D4616461F464FF0000886
:10187000D4F8589000BF94F83400012802D1022017
:10188000BDE8F087012084F8340000BF94F83500EB
:10189000012825D1022084F83500002060653B46F0
:1018A000324629462046FFF776F994F85C103F202F
:1018B0008840C9F808002068006840F016002168D8
:1018C0000860206C28B12068006840F0080021689A
:1018D00008602068006840F001002168086006E0A8
:1018E00000BF002084F8340000BF4FF002084046DB
:1018F000C6E7000070B5044600F024F90646254608
:10190000681C10B104480078054400BF00F01AF9C3
:10191000801BA842FAD370BD48000020F8B50246EB
:101920000B460025002400200021E6E0012606FAEF
:1019300001F51E6806EA0504AC4273D15E68012E0B
:1019400008D05E68022E05D05E68112E02D05E6857
:10195000122E13D190684F000326BE40B0434F00B3
:10196000DE68BE4030439060506801268E40B04330
:101970001E79C6F300168E4030435060D0684F0089
:101980000326BE40B0434F009E68BE403043D06047
:101990005E68022E02D05E68122E13D1CF0802F1CB
:1019A000200656F827004E07F70E0F26BE40B0431C
:1019B0004F07FF0E1E69BE403043CF0802F12006DC
:1019C00046F8270010684F000326BE40B0431E793A
:1019D00006F003064F00BE40304310605E6806F01C
:1019E0008056B6F1805FA8D100BF00260096454E14
:1019F000366846F48046434F3E603E46366806F4FD
:101A00008046009600BF00BF3F4E8F0856F8270063
:101A10008E07370F0F26BE40B0433C4EB24202D174
:101A200000262EE068E03A4EB24201D1012628E0BD
:101A3000384EB24201D1022623E0374EB24201D1E4
:101A400003261EE0354EB24201D1042619E0344E81
:101A5000B24201D1052614E0324EB24201D106262F
:101A60000FE0314EB24201D107260AE02F4EB242BA
:101A700001D1082605E02E4EB24201D1092600E030
:101A80000A268F073F0FBE4030431F4E8F0846F88F
:101A90002700284E3068A0435E6806F48036B6F50D
:101AA000803F00D12043234E3060361D3068A04374
:101AB0005E6806F40036B6F5003F00D120431D4EA7
:101AC000361D3060361D3068A0435E6806F480160F
:101AD000B6F5801F00D12043164E08363060361D03
:101AE0003068A0435E6806F40016B6F5001F00D10A
:101AF0002043104E0C363060491C1029FFF416AFFD
:101B0000F8BD00004438024008380140000002409F
:101B10000004024000080240000C02400010024095
:101B20000014024000180240001C02400020024045
:101B300000240240003C01400AB1816101E00B0435
:101B40008361704701480068704700004000002032
:101B50000348006803490978084401490860704750
:101B6000400000204800002010B50D48006840F4F7
:101B700000700B4908600846006840F48060086007
:101B80000846006840F480700860032000F0C2F846
:101B9000002000F007F800F04BF8002010BD000016
:101BA000003C024070B588B00446002500260022A3
:101BB00021461E2000F070F81E2000F05DF800BFE6
:101BC000002001901648006840F0040014490860A5
:101BD0000846006800F00400019000BF00BF02A9A1
:101BE00003A800F0B3F900F0D9F945000D48B5FBA2
:101BF000F0F0461E0C480D49086040F2E7310B48F2
:101C0000C160466000210161816000F0DFFC20B905
:101C1000064800F035FD08B070BD0120FBE700006C
:101C20004038024040420F0000080040740200208B
:101C300008B500BF002000900E48006840F48040C6
:101C40000C4908600846006800F48040009000BF1E
:101C500000BF00BF00200090081F006840F08050C7
:101C6000091F08600846006800F08050009000BF1F
:101C700000BF08BD4438024001460846002809DB81
:101C800000F01F0301229A4043099B0003F1E02367
:101C9000C3F8002100BF70472DE9F05F80460D4674
:101CA0001646002701F0B2FE074639462A4633465B
:101CB00001F00700C0F1070ABAF1040F02D94FF092
:101CC000040A01E0C0F1070AD14600F1040ABAF1A2
:101CD000070F02D24FF0000A01E0A0F1030AD44638
:101CE0004FF0010A0AFA09FAAAF1010A0AEA020AFD
:101CF0000AFA0CFA4FF0010B0BFA0CFBABF1010BDB
:101D00000BEA030B4AEA0B042146404601F086FE2B
:101D1000BDE8F09F00BF00F00702064B19684FF6C0
:101D2000FF031940044B0B4343EA0221014B1960A6
:101D300000BF70470CED00E00000FA0538B5002444
:101D400000BF002000901D48006840F080501B49F3
:101D500008600846006800F08050009000BF00BF97
:101D6000012017490864FFF7EDFE044607E0FFF77E
:101D7000E9FE001BB0F57A7F01D9032038BD114878
:101D8000406800F48030B0F5803FF0D101200C496C
:101D90004864FFF7D7FE044607E0FFF7D3FE001BB9
:101DA000B0F57A7F01D90320E8E70648406800F4DF
:101DB0000030B0F5003FF0D10020DFE740380240AE
:101DC00000000E420070004070B504460D460CB98C
:101DD000012070BD5848006800F00F00A84209D2E9
:101DE00055490D700846006800F00F00A84201D068
:101DF0000120EEE7207800F0020002281DD12078B3
:101E000000F00400042805D14C48006840F4E0507C
:101E10004A490860207800F00800082805D14748A2
:101E2000006840F46040454908604448006820F07C
:101E3000F000A168084341490860207800F00100E3
:101E4000A8B36068012807D13C4808380068C0F38F
:101E50004040B8B90120BCE76068022802D0606841
:101E6000032807D1354808380068C0F3406048B9F6
:101E70000120AEE7314808380068C0F3400008B9D7
:101E80000120A6E72D48006820F0030061680843A0
:101E90002A490860FFF756FE064609E0FFF752FEA2
:101EA000801B41F28831884202D9032091E707E084
:101EB0002248006800F00C006168B0EB810FEDD1A2
:101EC0001D48006800F00F00A84209D91A490D709A
:101ED0000846006800F00F00A84201D0012078E712
:101EE000207800F00400042807D11448006820F48A
:101EF000E050E168084311490860207800F00800CC
:101F0000082808D10D48006820F46040216940EAA3
:101F1000C1000A49086000F061F808490968C1F386
:101F20000311074A515CC84006490860064800682A
:101F3000FFF738FE00204CE7003C02400838024022
:101F40008C4000084C000020440000200F2202605A
:101F50000D4A126802F0030242600B4A126802F056
:101F6000F0028260084A126802F4E052C260064A37
:101F7000126802F46042D2080261044A126802F058
:101F80000F020A607047000008380240003C02401F
:101F900001480068704700004C00002000B5FFF7C2
:101FA000F7FF04490968C1F38221034A515CC84024
:101FB00000BD0000083802409C40000800B5FFF753
:101FC000E7FF04490968C1F34231034A515CC84044
:101FD00000BD0000083802409C4000082DE9F04791
:101FE000002400250026A1462548006800F00C00CA
:101FF00020B1042805D008283AD105E0DFF8849004
:1020000039E0DFF8849036E01D48001F006800F0DA
:102010003F041B48001F006800F4800078B11A4894
:102020001749091F0968C1F38811A0FB0170014617
:10203000224600233846FEF7D7F805460EE0114841
:102040000F49091F0968C1F38811A0FB01700146FF
:10205000224600233846FEF7C7F805460848001F09
:102060000068C0F30140401C4600B5FBF6F902E0F1
:10207000DFF8109000BF00BF4846BDE8F0870000C1
:10208000083802400024F400001BB700F8B50446ED
:102090000CB90120F8BD207800F00100002874D0B0
:1020A000F948006800F00C0004280DD0F6480068DC
:1020B00000F00C00082813D1F348001F006800F45A
:1020C0008000B0F5800F0BD1EF4808380068C0F3EE
:1020D0004040002859D06068002856D10120D9E737
:1020E00000BF6068B0F5803F08D1E7480838006855
:1020F00040F48030E449083908601EE06068B0F5BB
:10210000A02F0DD1E0480838006840F48020DE4957
:10211000083908600846006840F4803008600CE028
:10212000D9480838006820F48030D7490839086059
:102130000846006820F48020086000BF606890B105
:10214000FFF700FD054606E0FFF7FCFC401B642896
:1021500001D903209EE7CC4808380068C0F340400E
:102160000028F1D011E0FFF7EDFC054606E0FFF78F
:10217000E9FC401B642801D903208BE7C2480838DA
:102180000068C0F340400028F1D1207800F0020040
:1021900002285FD1BC48006800F00C0058B1BA4872
:1021A000006800F00C0008281CD1B748001F006828
:1021B00000F48000B0B9B44808380068C0F34000AB
:1021C00020B1E068012801D0012063E7AE4808385B
:1021D000006820F0F800216940EAC100AA490839E6
:1021E000086037E0E06800B30120A8490860FFF705
:1021F000A9FC054606E0FFF7A5FC401B022801D913
:10220000032047E7A04808380068C0F340000028D2
:10221000F1D09D480838006820F0F800216940EAB4
:10222000C10099490839086014E000209749086006
:10223000FFF788FC054606E0FFF784FC401B0228F8
:1022400001D9032026E7904808380068C0F3400011
:102250000028F1D1207800F0080008282CD160690E
:10226000A8B101208A490860FFF76CFC054606E02A
:10227000FFF768FC401B022801D903200AE78248C7
:102280006C300068C0F340000028F1D014E000205A
:102290007F490860FFF756FC054606E0FFF752FC51
:1022A000401B022801D90320F4E677486C3000680F
:1022B000C0F340000028F1D1207800F00400042889
:1022C00070D1002770483830006800F0805090B915
:1022D00000BF002000906C483830006840F080500B
:1022E0006949383108600846006800F08050009065
:1022F00000BF00BF01276748006800F48070B0B9D4
:102300006448006840F4807062490860FFF71AFC76
:10231000054606E0FFF716FC401B022801D9032002
:10232000B8E65C48006800F480700028F2D000BF76
:10233000A068012808D154486830006840F00100C6
:102340005149683108601DE0A06805280DD14E484C
:102350006830006840F004004B4968310860084666
:10236000006840F0010008600CE0474868300068F1
:1023700020F001004449683108600846006820F0F8
:102380000400086000BFA068A8B1FFF7DBFB0546AA
:1023900009E0FFF7D7FB401B41F28831884202D9A0
:1023A000032077E626E0384868300068C0F3400034
:1023B0000028EED013E0FFF7C5FB054608E0FFF765
:1023C000C1FB401B41F28831884201D9032061E6FC
:1023D0002D4868300068C0F340000028EFD1012F7D
:1023E00007D129483830006820F08050264938311C
:1023F000086000BFA069002845D02348006800F0AD
:102400000C0008285DD0A069022845D100201F4992
:102410000866FFF797FB054606E0FFF793FB401BB6
:10242000022801D9032035E6174808380068C0F3B0
:1024300040600028F1D1D4E907010843616A40EA0D
:1024400081110122A06AC2EB500041EA00412C2018
:10245000005D41EA00600C49091F086001200B493A
:102460000866FFF76FFB054606E0FFF76BFB401BB6
:10247000022801D903200DE6034808380068C0F39C
:1024800040600028F1D03FE0083802400000474299
:10249000800E47420070004000201C490866FFF78C
:1024A00051FB054606E0FFF74DFB401B022801D912
:1024B0000320EFE516480068C0F340600028F2D121
:1024C00022E0A069012800D1E4E51148001D06685A
:1024D00006F48001E069814214D106F03F01206AD0
:1024E00081420FD147F6C0703040616A884209D1FD
:1024F00006F44031A06A814204D106F07061E06ABE
:10250000814201D00120C5E50020C3E5000047421B
:10251000003802407047704730B502460B4600BF96
:1025200092F83C00012801D1022030BD012082F840
:102530003C0000BF022082F83D001068446810682B
:10254000816824F070041868044310684460184DD2
:102550001068A8421BD01068B0F1804F17D0154DFD
:102560001068A84213D0144D1068A8420FD0134D24
:102570001068A8420BD0124D1068A84207D0114D28
:102580001068A84203D0104D1068A84205D121F070
:1025900080015868014310688160012082F83D0085
:1025A00000BF002082F83C0000BF00BFBDE7000074
:1025B000000001400004004000080040000C004002
:1025C00000040140004001400018004010B50446DE
:1025D0000CB9012010BD94F83D0028B9002084F802
:1025E0003C00204600F00CF8022084F83D00211D3C
:1025F000206800F001FF012084F83D000020E9E799
:1026000038B504462068B0F1804F18D100BF0020D3
:1026100000901948006840F001001749086008461A
:10262000006800F00100009000BF00BF00221146CA
:102630001C20FFF731FB1C20FFF71EFB1BE00F499E
:102640002068884217D100BF002000900A48006827
:1026500040F00200084908600846006800F00200E7
:10266000009000BF00BF002211461D20FFF714FBA1
:102670001D20FFF701FB38BD403802400004004038
:1026800001460868C06840F001000B68D86008681F
:10269000806800F00702062A05D00868006840F04C
:1026A00001000B681860002070472DE9F0410446D6
:1026B0000D4600BF94F83C00012802D10220BDE87D
:1026C000F081012084F83C0000BF022084F83D0026
:1026D0002068866826F0770626F47F4620688660A4
:1026E0002868502833D00CDC202850D004DC002887
:1026F0004BD0102851D149E0302849D040284CD146
:1027000039E060282DD0702807D0B0F5805F03D065
:10271000B0F5005F41D10DE040E0D5E902136A68F1
:10272000206800F0D5FE2068866846F077062068AD
:10273000866033E0D5E902136A68206800F0C8FEBD
:102740002068806840F480402168886026E0EA685C
:102750006968206800F0D0FE5021206800F0C3FEB8
:102760001CE0EA686968206800F0D9FE60212068F2
:1027700000F0B9FE12E0EA686968206800F0BCFE6B
:102780004021206800F0AFFE08E000BF00BF00BF9E
:102790002968206800F0A7FE00E000BF00BF01200C
:1027A00084F83D0000BF002084F83C0000BF00BF5B
:1027B00085E7704710B5044620680069C0F3400003
:1027C000D8B12068C068C0F34000B0B16FF002001B
:1027D00021680861012020772068806900F00300EB
:1027E00018B12046FFF7E5FF05E0204600F0ADF800
:1027F000204600F0ABF80020207720680069C0F385
:102800008000D8B12068C068C0F38000B0B16FF01C
:10281000040021680861022020772068806900F4A4
:10282000407018B12046FFF7C4FF05E0204600F0D5
:102830008CF8204600F08AF8002020772068006994
:10284000C0F3C000D8B12068C068C0F3C000B0B108
:102850006FF0080021680861042020772068C069B3
:1028600000F0030018B12046FFF7A3FF05E0204663
:1028700000F06BF8204600F069F80020207720680F
:102880000069C0F30010D8B12068C068C0F3001020
:10289000B0B16FF01000216808610820207720682F
:1028A000C06900F4407018B12046FFF782FF05E0D0
:1028B000204600F04AF8204600F048F80020207733
:1028C0002068006900F0010058B12068C06800F07D
:1028D000010030B16FF0010021680861204600F06E
:1028E00037F820680069C0F3C01058B12068C0688C
:1028F000C0F3C01030B16FF080002168086120463D
:10290000FFF708FE20680069C0F3801058B1206806
:10291000C068C0F3801030B16FF0400021680861DA
:10292000204600F09BF920680069C0F3401058B1C0
:102930002068C068C0F3401030B16FF020002168FB
:1029400008612046FFF7E7FD10BD704770470000A3
:1029500010B50446AD48844204D1AD480068401C1F
:10296000AB490860AB4884427ED1AB48006818B9D7
:10297000AA480068012803D0A9480078012831D16D
:10298000A848007A01280CD1A348006848B9A0489B
:102990000068A54908600120A149087002209E49ED
:1029A00008609D480068022876D1994800689E49D1
:1029B0000968401A9D490968884214D29FED9C0A13
:1029C0009C4880ED000AB3EE040A9B4880ED000AA3
:1029D000002201219948FFF7AFF800220221974811
:1029E000FFF7AAF858E08A4800688F490968401A3A
:1029F0008E490968924A12681144884214D29FEDA8
:102A00008C0A8C4880ED000A9FED8E0A8A4880ED82
:102A1000000A002201218948FFF78EF801220221D5
:102A20008648FFF789F837E0794800687E490968E9
:102A3000401A7E490968824A12681144824A126823
:102A40001144884216D29FED7A0A7A4880ED000A36
:102A50009FED7C0A784880ED000A0022012177482A
:102A6000FFF76AF8002200E08DE002217348FFF7CB
:102A700063F811E09FED730A6F4880ED000A9FED47
:102A8000710A80ED000A644800686449086000200B
:102A900061490860624908705F48006818B95F487A
:102AA0000068022803D05E480078012835D15D48CF
:102AB000407A02280CD15848006848B95448006848
:102AC000594908600120564908700320524908609E
:102AD00051480068032820D14D48006852490968D0
:102AE000401AB0F5F07F0FD29FED580A524880EDA2
:102AF000000A012211465148FFF71EF80022022168
:102B00004E48FFF719F808E0434800684349086059
:102B1000002041490860424908703F48006818B9E0
:102B20003E480068032803D03D480078012866D15C
:102B30003C48007A02280BD13748006840B9344835
:102B40000068394908600120334908603449087039
:102B500031480068012852D12D480068324909687F
:102B6000401AB0F57A7F0FD29FED390A324880EDD6
:102B7000000A002201213148FEF7DEFF0022022177
:102B80002E48FEF7D9FF3AE0214800682649096837
:102B9000401A40F2D66188420FD29FED2E0A264895
:102BA00080ED000A002201212448FEF7C5FF012222
:102BB00002212248FEF7C0FF21E0154800681A49AB
:102BC0000968401A40F6BE2188420FD29FED200AC4
:102BD000194880ED000A002201211848FEF7ACFFD9
:102BE000002202211548FEF7A7FF08E00A48006806
:102BF0000A49086000200849086009490870164918
:102C00002068884201D1FEF7A3FF10BDB400002068
:102C100018000020F4000020380000203C000020B4
:102C200034000020340700201C0000202400002075
:102C300000409C45140000201000002000040240C9
:102C40002000002000000000280000200000344385
:102C50000000C8C2000048420008004070477047AA
:102C600010B504460CB9012010BDA06900B100E008
:102C700000BF94F8390028B9002084F838002046B5
:102C800000F028F8242084F839002068C06820F477
:102C900000502168C860204600F0C2FC206800692E
:102CA00020F49040216808612068406920F02A00E3
:102CB000216848612068C06840F400502168C860FD
:102CC0000020E063202084F8390084F83A000020D6
:102CD000CAE7000010B586B00446142101A8FDF72C
:102CE000CDFA5549206888424FD100BF002000909E
:102CF0005248006840F010005049086008460068DB
:102D000000F01000009000BF00BF00BF0020009046
:102D10004A481438006840F00200484914390860F5
:102D20000846006800F00200009000BF00BFC0200D
:102D300001900220029000200390032004900720BD
:102D4000059001A93E48FEF7E9FD3E483E4908606E
:102D50004FF00060486000213B488160C1604FF443
:102D6000806101610021416181614FF48071C16125
:102D7000002101624162FEF7FDFC08B1FDF722FF70
:102D800000BF31486063846354E030492068884262
:102D900050D100BF002000902848006840F020007B
:102DA000264908600846006800F02000009000BF37
:102DB00000BF00BF0020009020481438006840F099
:102DC00040001E49143908600846006800F04000C1
:102DD000009000BF00BF4FF4844001900220029099
:102DE00000200390032004900820059001A91848B2
:102DF000FEF794FD134818381649086080054860AE
:102E0000002114488160C1604FF48061016100219C
:102E1000416181614FF48071C161002101624162B1
:102E2000FEF7A8FC08B1FDF7CDFE00BF09486063BE
:102E3000846300BF06B010BD00100140443802405A
:102E40000004024040640240B4010020001401402C
:102E5000001802401402002077B581B004461546E0
:102E600094F83A00202850D1029800B115B90120F9
:102E700004B070BD00BF94F83800012801D10220D1
:102E8000F6E7012084F8380000BF0298A062A5850B
:102E90000020E063222084F83A001D48616BC8637B
:102EA0001C48616B08641C48616BC8640020616B3E
:102EB000086502AE32682368191D2B46606BFEF769
:102EC000CFFC00BF002000902068006800902068C0
:102ED0004068009000BF00BF00BF002084F83800A9
:102EE00000BF2068C06840F480702168C860206816
:102EF000406940F00100216848612068406940F065
:102F00004000216848610020B2E70220B0E70000DD
:102F100097350008DD3500084735000810B5044630
:102F2000054920680968884204D1012003490860E6
:102F300001F00EF810BD00007401002070000020A8
:102F4000704700BFFEE7000010B50D480D4908604E
:102F50000920486000210B488160C1604FF40031B6
:102F6000016100214161017641768176C176017768
:102F70004177FEF77DF908B1FDF724FE10BD000092
:102F8000006400408C00002008B500BF00200090C5
:102F90000E48006840F480000C490860084600684C
:102FA00000F48000009000BF00BF002211463920CD
:102FB000FEF772FE3920FEF75FFE002211463A202E
:102FC000FEF76AFE3A20FEF757FE08BD3038024091
:102FD00000B587B0142102A8FDF750F900BF00200A
:102FE00001903D48006840F040003B4908600846B9
:102FF000006800F04000019000BF00BF00BF00204B
:1030000001900846006840F001000860084600682A
:1030100000F00100019000BF00BF00BF0020019040
:103020000846006840F0020008600846006800F0AA
:103030000200019000BF00BF00BF002001900846C1
:10304000006840F0080008600846006800F00800CA
:10305000019000BF00BF00BF00200190084600683B
:1030600040F0200008600846006800F02000019051
:1030700000BF00BF00BF002001900846006840F07C
:10308000800008600846006800F08000019000BFE2
:1030900000BF002203211148FEF74EFD002203214C
:1030A0000F48FEF749FD0320029001200390002005
:1030B0000490059002A90948FEF730FC0320029015
:1030C0000120039000200490059002A90448FEF717
:1030D00025FC07B000BD000030380240001402405B
:1030E0000004024000B587B00020039004900590D2
:1030F0000690019002904FF08040144908605920DA
:10310000486000211148816040F2E731C160002130
:10311000016180218161FFF759FA08B1FDF752FD85
:103120004FF48050039003A90848FFF7BEFA08B196
:10313000FDF748FD00200190029001A90348FFF728
:10314000EBF908B1FDF73EFD07B000BDB40000206B
:1031500000B587B000200390049005900690019080
:10316000029015481549086059204860002113480D
:10317000816040F2E731C1600021016180218161FD
:10318000FFF724FA08B1FDF71DFD4FF480500390BE
:1031900003A90A48FFF789FA08B1FDF713FD0020DB
:1031A0000190029001A90548FFF7B6F908B1FDF7B3
:1031B00009FD07B000BD000000040040F40000203D
:1031C00010B50A480A4908600A48486000210848C2
:1031D0008160C16001610C21416100218161C16197
:1031E000FFF73EFD08B1FDF7EDFC10BD00100140FA
:1031F00034010020A086010010B50B480B4908607F
:103200004FF4E1304860002108488160C1600161ED
:103210000C21416100218161C161FFF721FD08B1ED
:10322000FDF7D0FC10BD0000001401407401002027
:1032300000BFFEE700BFFEE790ED040AD0ED030AF1
:1032400030EE600A80ED050A90ED050AD0ED070A20
:1032500030EE600AD0ED000A20EE200AD0ED010A1F
:1032600090ED051A00EE810AD0ED050A90ED071ADF
:10327000F0EE001A41EEC10A90ED061A70EE810AD6
:1032800090ED021A01EE200AD0ED080A30EE200A75
:1032900080ED080A90ED070A80ED060A90ED040A19
:1032A000D0ED030A30EE600A80ED070A90ED080ABF
:1032B000D0ED090AB4EEE00AF1EE10FA03DD90ED6C
:1032C000090A80ED080A90ED080AD0ED090AF1EE2E
:1032D000600AB4EEE00AF1EE10FA05D290ED090AA8
:1032E000B1EE400A80ED080A70477047704770479A
:1032F00000B593B0302107A8FCF7C0FF142102A845
:10330000FCF7BCFF00BF002001902648006840F099
:103310008050244908600846006800F08050019001
:1033200000BF00BF00BF002001901F48006840F4AC
:1033300040401D4908600846006800F44040019084
:1033400000BF00BF012007900004089002200D90EC
:1033500041050E9106210F91B42110910221119186
:103360000421129107A8FEF791FE08B1FDF72AFC8F
:10337000FEF7E4FC08B1FDF725FC0F2002900220C7
:103380000390002004904FF4A05005904FF480501B
:103390000690052102A8FEF717FD08B1FDF712FC03
:1033A00013B000BD4038024000700040054800687E
:1033B00040F47000034908604FF000600149803913
:1033C0000860704788ED00E010B50248FFF7F2F999
:1033D00010BD0000B400002010B50248FFF7EAF964
:1033E00010BD0000F400002010B50248FFF7E2F91C
:1033F00010BD00007402002010B50268294B9842ED
:103400000ED0B0F1804F0BD0274B984208D0274BFD
:10341000984205D0264B984202D0264B984203D1C1
:1034200022F070024B681A431E4B984220D0B0F134
:10343000804F1DD01C4B98421AD01C4B984217D07D
:103440001B4B984214D01B4B984211D01A4B9842F8
:103450000ED01A4B98420BD0194B984208D0194BFA
:10346000984205D0184B984202D0184B984203D18D
:1034700022F44072CB681A4322F080034C6943EA7D
:10348000040202608B68C3620B688362054B98423A
:1034900002D0084B984201D10B69036301234361B9
:1034A00010BD000000000140000400400008004082
:1034B000000C004000040140004001400044014075
:1034C0000048014000180040001C0040002000405F
:1034D00030B50C46816821F47F4142EA032525433B
:1034E0002943816030BD0A46816821F0700142F0B5
:1034F000070319438160704730B50B461446026AD2
:10350000056A25F001050562816921F0F00141EAB3
:10351000041122F00A021A438161026230BD30B503
:103520000B461446056A25F0100505628169026A9A
:1035300021F4704141EA043122F0A00242EA031270
:103540008161026230BD70B506460025B46B20680B
:103550004069C0F3C01594F83900212805D125B180
:103560000020E084204600F050F820684069C0F355
:10357000801594F83A00222805D125B10020E08575
:10358000204600F032F8E06B40F01000E063204687
:10359000FFF765FB70BD70B50546AC6B2868006829
:1035A00000F48070B0B90020E0852068C06820F485
:1035B00080702168C8602068406920F0010021689F
:1035C00048612068406920F040002168486120205F
:1035D00084F83A002046FFF7A1FC70BD70B50446A0
:1035E000A56B2846FFF7ACFC70BD0168C96821F4E3
:1035F00090710268D1600168496921F00101026897
:103600005161202180F83A1070470168C96821F0A3
:10361000C0010268D160202180F839107047000095
:103620002DE9F84F04462068006920F44050E16815
:103630000843216808612169A0680843616908435B
:10364000E169084300902068C06849F20C61884332
:10365000009908432168C8602068406920F44070E0
:10366000A169084321684861E069B0F5004F75D150
:10367000E3492068884203D0E249206888426FD13C
:10368000FEF79CFC814602206168A0FB01510B46BD
:103690001920A9FB00712A463846FCF7A5FD6421D4
:1036A000B0FBF1F04FEA001A02206168A0FB015163
:1036B0000B461920A9FB00712A463846FCF794FDF9
:1036C000074602206168A0FB01510B461920A9FBA7
:1036D00000B12A465846FCF787FD6421B0FBF1F0A3
:1036E00000EBC00101EB0010A7EB8000322101EBE1
:1036F000C0006421B0FBF1F000F0F8000AEB400AD2
:1037000002206168A0FB01510B461920A9FB007142
:103710002A463846FCF768FD074602206168A0FB90
:1037200001510B461920A9FB00B12A465846FCF767
:103730005BFD6421B0FBF1F000EBC00101EB001078
:10374000A7EB8000322101EBC0006421B0FBF1F057
:1037500000F007005044216888604FE16EE0FFE709
:10376000FEF71CFC814602206168A0FB01510B465C
:103770001920A9FB00712A463846FCF735FD642163
:10378000B0FBF1F04FEA001A02206168A0FB015182
:103790000B461920A9FB00712A463846FCF724FD88
:1037A000074602206168A0FB01510B461920A9FBC6
:1037B00000B12A465846FCF717FD6421B0FBF1F032
:1037C00000EBC00101EB0010A7EB8000322101EB00
:1037D000C0006421B0FBF1F000F0F8000AEB400AF1
:1037E00002206168A0FB01510B461920A9FB007162
:1037F0002A463846FCF7F8FC074602206168A0FB21
:10380000015003461920A9FB00B12A465846FCF78F
:10381000EBFC6421B0FBF1F000EBC00101EB001008
:10382000A7EB8000322101EBC0006421B0FBF1F076
:1038300000F00700504421688860DFE0704920688C
:10384000884203D06F49206888426BD1FEF7B6FBEF
:10385000814604206168A0FB01510B461920A9FB99
:1038600000712A463846FCF7BFFC82460420616896
:10387000A0FB01510B461920A9FB00712A463846CE
:10388000FCF7B2FC6421B0FBF1F000EBC00101EBEE
:103890000010AAEB8000322101EB00106421B0FB84
:1038A000F1F000F0F00A04206168A0FB015003462B
:1038B0001920A9FB00712A463846FCF795FC6421C3
:1038C000B0FBF1F00AEB001A04206168A0FB015183
:1038D0000B461920A9FB00712A463846FCF784FCE8
:1038E000074604206168A0FB015003461920A9FB8C
:1038F00000B12A465846FCF777FC6421B0FBF1F092
:1039000000EBC00101EB0010A7EB8000322101EBBE
:1039100000106421B0FBF1F000F00F00504421686A
:1039200088606BE0FEF73AFB814604206168A0FBEB
:10393000015003461920A9FB00712A463846FCF7BE
:1039400053FC824604206168A0FB01500346192005
:10395000A9FB00712A463846FCF746FC6421B0FBFF
:10396000F1F000EBC00101EB0010AAEB8000322166
:1039700001EB00106421B0FBF1F000F0F00A04202C
:103980006168A0FB015003461920A9FB00712A467B
:103990003846FCF729FC6421B0FBF1F00AEB001A71
:1039A00004206168A0FB017003461920A9FB0050A8
:1039B00001463A462846FCF717FC07460420616892
:1039C000A0FB015003461920A9FB00B12A46584626
:1039D000FCF70AFC6421B0FBF1F000EBC00101EB45
:1039E0000010A7EB8000322101EB00106421B0FB36
:1039F000F1F000F00F00504421688860BDE8F88FB6
:103A0000001001400014014000BFFEE702480068BA
:103A1000C0F30220704700000CED00E010B5002854
:103A200004DB0A07130E054A135406E00A07140EB6
:103A3000034A00F00F031B1FD45410BD00E400E044
:103A400018ED00E002E008C8121F08C1002AFAD1F0
:103A500070477047002001E001C1121F002AFBD10E
:103A6000704700004A780B7842EA032200EE102AE1
:103A7000B8EEC00ADFED0B0A20EE200AD0ED0D0AE9
:103A800080EE201A80ED021A90ED020A80ED060AFF
:103A900090ED060A80ED070A90ED020A80ED080A13
:103AA000704700000000B4432DED048B82B0FEF798
:103AB0005BF8FFF71DFCFFF78BFAFFF765FAFFF7DE
:103AC00043FAFFF77DFBFFF797FBFFF70BFBFFF7D1
:103AD0003FFBFE48FCF7C6FD0020FD49087081F859
:103AE000900081F8200181F8B00181F8400281F84E
:103AF000D002012081F86003002081F8F003FCF778
:103B000097FE0020F349086000F086FAF248FEF7BD
:103B1000B7FDF248FEF7B4FD17E2F148006800284F
:103B200072D1F048B0F90400A0F58060642811DD7E
:103B3000ED480068FCF754FC41EC190B9FEDEB0BD2
:103B400053EC102BFCF7A5FB41EC180BFCF78CFC9D
:103B5000E5490860E348B0F90400A0F5806010F181
:103B6000640F11DAE0480068FCF73AFC41EC190BED
:103B70009FEDDE0B53EC102BFCF72CFC41EC180BEB
:103B8000FCF772FCD8490860D648B0F90600A0F5E9
:103B90008060642811DDD7480068FCF721FC41EC07
:103BA000190B9FEDD50B53EC102BFCF713FC41ECDC
:103BB000180BFCF759FCCF490860CA48B0F9060059
:103BC000A0F5806010F1640F11DACA480068FCF7B4
:103BD00007FC41EC190B9FEDC80B53EC102BFCF7C5
:103BE00058FB41EC180BFCF73FFCC2490860BD488C
:103BF000B0F90000A0F58060642806DD9FEDC00AE2
:103C0000C04880ED000A13E083E0B648B0F9000038
:103C1000A0F5806010F1640F05DA9FEDBB0AB9488A
:103C200080ED000A04E09FEDB90AB64880ED000A75
:103C3000AC48B0F90200A0F5806064280ADD0022DB
:103C40000121B348FDF778FF01220221B048FDF7BA
:103C500073FF1CE0A348B0F90200A0F5806010F1EA
:103C6000640F0ADA01221146A948FDF765FF002218
:103C70000221A748FDF760FF09E000220121A448C6
:103C8000FDF75AFF00220221A148FDF755FFA14888
:103C9000984991ED000A00F0CBF99E489030924986
:103CA00091ED000A00F0C4F99A489038954991EDD9
:103CB000000A00F0D8F98B48407A012805D19FED21
:103CC000960A964880ED000A04E09FED900A93481A
:103CD00080ED000A7E48914991ED000A00F0C3F999
:103CE0007B4890308D4991ED000A00F0BCF98C487A
:103CF0008A4991ED000AB1EE400A00F0B4F9884813
:103D00009030864991ED000AB1EE400A00F0ABF91F
:103D10009CE07348006803282DD16D489FED7B0A15
:103D200000F0A1F96A4890309FED780A00F09BF905
:103D30007B489FED760A00F096F9794890309FED28
:103D4000730A00F090F973489038764991ED000AB3
:103D500000F089F96F489FED6D0A00F084F96D4815
:103D600090309FED6A0A00F07EF96F489FED670A78
:103D700000F079F96AE05A480068022835D15448C1
:103D80006A4991ED000A00F06EF951489030674998
:103D900091ED000A00F067F96148644991ED000A6D
:103DA000B1EE400A00F05FF95D4890305F4991ED57
:103DB000000AB1EE400A00F056F9564890385949C9
:103DC00091ED000A00F04FF952489FED500A00F0C3
:103DD0004AF9504890309FED4D0A00F044F952489E
:103DE0009FED4A0A00F03FF930E03D4800680128A5
:103DF0002CD137489FED450A00F035F93448903012
:103E00009FED420A00F02FF945489FED400A00F06F
:103E10002AF9434890309FED3D0A00F024F93D48CF
:103E20009038404991ED000A00F01DF939489FEDA6
:103E3000370A00F018F9374890309FED340A00F047
:103E400012F939489FED310A00F00DF9204890ED44
:103E5000820ABDEEC00A10EE100A00B200901C48A3
:103E600090ED5E0ABDEEC00A10EE100A03B21848CB
:103E700090ED3A0ABDEEC00A10EE100A02B21448E4
:103E800090ED160ABDEEC00A10EE100A01B20F48FE
:103E9000FCF720FC244890ED160ABDEEC00A10EE97
:103EA000100A00B200900A4890EDEE0ABDEEC00A7A
:103EB00010EE100A03B2064890EDCA0ABDEEC00A21
:103EC00010EE100A02B2024832E000008C0000201E
:103ED000B402002070000020B4000020F400002094
:103EE00038000020340700200400002000000000FB
:103EF0000000D03F08000020333333333333C33F57
:103F00000000C8420C0000200000C8C200000000F1
:103F1000000402408405002000409C450000002071
:103F2000D403002010000020A4060020140000206C
:103F300090EDA60ABDEEC00A10EE100A01B20348C9
:103F4000FCF704FC0120FDF7D5FCE6E58C00002021
:103F500010B588B000243FE0224801191A2201A8B8
:103F6000FCF773F99DF80400FF2834D19DF8050093
:103F7000992830D1DDF806001B490860DDF80A00F9
:103F80001A490860DDF80E0019490860DDF81200D2
:103F9000184908609DF81600174908709DF8170029
:103FA000164908709DF81800154908709DF8190009
:103FB000144908709DF81A00134908709DF81B00F9
:103FC000124908709DF81C00114908709DF81D00E9
:103FD0001049087002E0641C342CBDDB00BF08B03F
:103FE00010BD00006C070020740000207800002045
:103FF0007C0000208000002084000020850000203C
:104000008600002087000020880000208900002012
:104010008A0000208B00002010B53422024903489A
:10402000FEF71AFF10BD00006C070020740100208D
:1040300000B5B0EE402A024682ED1D2A92ED0A0A32
:1040400082ED1C0A02F16400FFF7F6F892ED210AF6
:1040500082ED120A92ED030A82ED110A02F1380094
:10406000FFF7EAF800BD00B5B0EE402A024682ED47
:10407000122A92ED030A82ED110A02F13800FFF7CD
:10408000DBF800BD00061016000610160000000048
:1040900000000000010203040607080900000000F8
:1040A00001020304C4400008000000208C0000004E
:1040B000443A0008504100088C000020140B000016
:1040C000543A00080000000000000000000000005A
:1040D00000000000000000000000000000000000E0
:1040E00000000000A0000000D0070000D007000082
:1040F0000000C8C2000034430000000000000000BF
:10410000030000000000000010000000010000009B
:104110000024F40000000000000000000000000087
:104120000000000000000000008076400000000059
:10413000000000000000000000000000000000007F
:10414000000000000000000000000000000000006F
:04000005080001AD41
:00000001FF
