:020000040800F2
:10000000D00A002085020008332200080B210008D6
:10001000312200086D0800084D260008000000008D
:10002000000000000000000000000000C501000802
:10003000F10B00080000000021020008B7220008B0
:100040009F0200089F0200089F0200089F0200080C
:100050009F0200089F0200089F0200089F020008FC
:100060009F0200089F0200089F0200089F020008EC
:100070009F0200089F0200089F0200089F020008DC
:100080009F0200089F0200089F0200089F020008CC
:10009000710800089F0200089F0200089F020008E4
:1000A0009F0200089F0200089F0200089F020008AC
:1000B0009F0200089F0200089F0200089F0200089C
:1000C0009F0200089F0200089F0200089F0200088C
:1000D0009F0200089F0200089F0200089F0200087C
:1000E0009F0200089F0200089F0200089F0200086C
:1000F0009F0200089F0200089F0200089F0200085C
:100100009F0200089F0200089F0200089F0200084B
:100110009F0200089F0200089F0200089F0200083B
:100120009F0200089F020008410B00089F02000880
:100130009F0200089F0200089F0200089F0200081B
:100140009F0200089F0200089F0200089F0200080B
:100150009F0200089F0200089F0200089F020008FB
:100160009F0200089F0200089F0200089F020008EB
:100170009F0200089F0200089F0200080000000084
:100180009F0200089F0200089F0200089F020008CB
:100190009F0200089F0200089F0200089F020008BB
:1001A00000000000000000009F020008DFF810D0EF
:1001B00000F04AFB00480047C1260008AFF300806A
:1001C000D00A00202C4B19680868B0E8F04F80F383
:1001D0000988BFF36F8F4FF0000080F311887047DC
:1001E0000000000008480068006880F308884FF0AD
:1001F000000080F3148862B661B6BFF34F8FBFF37F
:100200006F8F00DF00BF00BF08ED00E0DFF80C00DB
:10021000016841F470010160704700BF88ED00E0A3
:10022000EFF30980BFF36F8F134B1A681EF0100FA6
:1002300008BF20ED108A20E9F04F106009B44FF09C
:10024000500080F31188BFF34F8FBFF36F8F02F020
:10025000ADFB4FF0000080F3118809BC19680868F5
:10026000B0E8F04F1EF0100F08BFB0EC108A80F31A
:100270000988BFF36F8F704720000020EFF30580DF
:10028000704700000648804706480047FEE7FEE743
:10029000FEE7FEE7FEE7FEE7FEE7FEE7FEE7FEE736
:1002A00071230008AD0100082DE9F05F054600202C
:1002B00092469B4688460646814640241BE02846D7
:1002C00041464746224600F009FA53465A46C01AAC
:1002D000914110D311461846224600F0F0F92D1A2C
:1002E00067EB01084F4622460120002100F0E7F9A4
:1002F00017EB00094E41201EA4F10104DFDC484643
:1003000031462A464346BDE8F09FD2B201E000F8EC
:10031000012B491EFBD270470022F6E710B51346A9
:100320000A4604461946FFF7F0FF204610BD2DE9A6
:10033000FE4F804681EA0300C00F0C46009021F07A
:10034000004123F00045B8EB0200A94105D2404628
:10035000214690461C460B46024623F000401043BF
:1003600047D0270DC7F30A00C3F30A510290401A81
:10037000019040286BDAC3F3130040F4801B00980F
:10038000924620B10023D2EB030A63EB0B0B0198DA
:100390005946C0F14002504600F091F906460D461C
:1003A00050465946019A00F0A9F910EB0800614146
:1003B000002487EA115284EAE7731A4340D0009A76
:1003C00062B3019A012A4FEA075215DC001B61EB68
:1003D00002014FF0004202EA0752CDE90042001C40
:1003E00041F5801132462B4600F0E0F903B0BDE83C
:1003F000F08F40462146F9E7001B61EB0201001C2B
:1004000041F5801300185B412018A2F5001747EB57
:10041000030140EAD570B6196D4111E06D084FEA4D
:10042000360645EAC0754FEA0752001B61EB020130
:10043000001C41F5801149084FEA30000019514174
:1004400032462B4603B0BDE8F04F00F0A0B900984B
:10045000012240000023D0EB020263EBE07300981E
:1004600021464FEAE074B8EB000061EB0401E9E7D4
:1004700083F000435BE781F0004158E72DE9FE4F30
:1004800081EA030404F0004421F0004100944FF09D
:10049000000B23F0004350EA01045ED052EA03044B
:1004A0005BD0C3F30A54C1F30A552C44A4F2F334CD
:1004B0000194A0FB0254C1F3130141F48011C3F372
:1004C000130343F4801301FB024400FB034E840A30
:1004D000970A44EA815447EA8357A4FB07680295C8
:1004E0008D0A05FB07854FEA932C04FB0C54270566
:1004F000029D4FEA065847EA1637B5EB08056EEB42
:10050000070C870E920E47EA811742EA8312A7FB77
:100510000201B6EB0B0164EB00042B0D43EA0C3334
:100520005E1844EB1C50DA465146E7FB0201C5F366
:1005300013044FEA0B3343EA14534FEA0432019C8D
:1005400043EA0603A4F10C040294009CCDE900B434
:1005500000F02CF903B0BDE8F08F00200146F9E768
:100560002DE9F04D81EA030404F0004B21F0004531
:1005700014464FF0000A23F0004150EA050220D053
:1005800054EA01021DD0C5F30A570246C5F313030E
:10059000C1F31300C1F30A5640F4801543F48013ED
:1005A000A7EB0608101BD64608F2FD3873EB0500D2
:1005B00002D308F1010801E092185B41B8F1000F85
:1005C00003DA00200146BDE8F08D00204FF48011D1
:1005D000064684460EE0171B73EB050705D3121B76
:1005E00063EB050306434CEA010C49084FEA30006F
:1005F00092185B4150EA0107EDD152EA030012D094
:1006000082EA040083EA0501084305D0101BAB41D0
:1006100006D20122002306E000224FF0004302E050
:100620006FF0010253101AEB06004CEB085110EB6F
:100630000A0041EB0B01BDE8F04D00F0A8B80EB583
:10064000C10F80EAE0700844CA07002140F233433A
:100650008DE80E000A460B4600F0A8F803B000BD76
:1006600000F0004230F000400AD0C10D01F5607189
:10067000C0F3160042EA0151C20840071143704717
:1006800000200146704701F0004330B421F00041E2
:1006900050EA010206D00A0DA2F56072C1F31301FF
:1006A000002A02DC30BC00207047440F44EAC10439
:1006B000C100E01830BC00EBC25000F031B8202A75
:1006C00004DB203A00FA02F1002070479140C2F1A9
:1006D000200320FA03F3194390407047202A04DBDB
:1006E000203A21FA02F00021704721FA02F3D040AB
:1006F000C2F120029140084319467047202A06DBC8
:10070000CB17203A41FA02F043EAE07306E041FADF
:1007100002F3D040C2F120029140084319467047CD
:100720000029A8BF7047401C490008BF20F0010005
:10073000704710B4B0FA80FC00FA0CF050EA0104E3
:1007400004BF10BC704749B1CCF1200421FA04F475
:1007500011FA0CF118BF012121430843A3EB0C014E
:10076000CB1D4FEA00614FEA102042BF002010BCB1
:10077000704700EBC35010440029A4BF10BC704761
:10078000401C490008BF20F0010010BC704710B5A4
:10079000141E73F1000408DA401C41F100019218A4
:1007A0005B411A4301D120F0010010BD2DE9F04D4D
:1007B00092469B4611B1B1FA81F202E0B0FA80F2A2
:1007C00020329046FFF77BFF04460F4640EA0A00BE
:1007D00041EA0B0153465A46084313D0114653EAE7
:1007E000010019D0C8F140025046FFF777FF0546D7
:1007F0000E46504659464246FFF761FF084305D072
:10080000012004E020463946BDE8F08D0020054374
:1008100046EAE0762C4337430A986305E40AA0EBE6
:1008200008000022FD0A44EA47540A3002D500209D
:100830000146E9E7010510196941DDE9084500199C
:100840006941BDE8F04DA2E7064C074D06E0E068BF
:1008500040F0010394E8070098471034AC42F6D307
:10086000FFF7A8FC382B0008582B0008FEE7000013
:10087000014800F052BB00007800002010B58AB09B
:10088000002101220446CDE90612039104910E20B5
:10089000CDE9082005910091019102916946204619
:1008A00000F02AFA08B100F0A4F9204600F022FD79
:1008B00008B100F09EF90221204600F09CF908B131
:1008C00000F097F90AB0002010BD0000002A02D104
:1008D000014900F069B870476000002030B589B068
:1008E0000825044606950C98AD010295002504954F
:1008F00005950D0A8DF800508DF80110110A8DF83C
:100900000210190A8DF804108DF80530010A8DF8CF
:1009100006108DF803208DF80700204600F0E7FA56
:100920000028FAD0054B6A4602A9204600F075F966
:10093000002801D000F05DF909B030BD5C00002056
:1009400030B589B00825044606950C9840F2FF158D
:1009500002950025049505950D0A8DF800508DF837
:100960000110110A8DF80210190A8DF804108DF883
:100970000530010A8DF806108DF803208DF8070068
:10098000204600F0B4FA0028FAD0064B6A4602A9C5
:10099000204600F042F9002801D000F02AF909B001
:1009A00030BD00005C00002000B5A0F20120082846
:1009B00012D200EBC002094800EB02125068322844
:1009C000104605DA01F062FE5068401C506001E0FC
:1009D00000F052F8002000BD012000BD30020020D0
:1009E0009FED1C1A9FED1C2ADFED1C0ADFED1C2A6F
:1009F0009FED1C3A1C4ADFED1D3A0021F2EE0E1A63
:100A0000B7EE000A01EBC10002EB0010C0ED0E1AB8
:100A100080ED0F0A80ED100A80ED171A80ED192A7B
:100A2000C0ED1A0AC0ED1B0AC0ED222A80ED233A60
:100A3000037813B1012B03D006E09FED0D4A01E0CE
:100A40009FED0C4A80ED0C4A491CC0ED0D3A082977
:100A5000D8DB704700401C460000A04200000000A8
:100A600000409C4500007A4430020020000000460F
:100A70002CA09941000010420A88DFED2E1A52BACC
:100A800000EE102A90ED0D1A2B4BB8EE400A60EEE6
:100A9000210A80EE810A80ED020A4A8852BA12B217
:100AA00000EE902AB8EEE01A80ED031A898849BA60
:100AB00009B200EE901AF8EEE00AC0ED040AD0ED9B
:100AC000070AC0ED060A70EE600A80ED070A416A67
:100AD00010EE902A9A4201DD491E05E010EE902AA0
:100AE000164B9A4201D9491C416200EE901A4FF40C
:100AF000B4725143F8EEE00A60EEA11AD0ED080A94
:100B000030EE602A72EE211A90ED0C2AC1EE822A94
:100B1000C1EE021A01EE101AC0ED0A2AB8EEC11A8F
:100B200031EE000A30EE600AC0ED0B1A80ED050AC6
:100B3000704700000000B44300003443000034C399
:100B4000014800F00BBC0000E00000200168182301
:100B5000CAB2103AB2FBF3F2054B6FF30901032A54
:100B60009B5CC36500D9091D81650846704700007C
:100B7000182B000810B5014600208B698A6A4FF0D7
:100B8000C07453B1B3F5005F15D072B1012A0CD017
:100B9000022A0AD0032A09D104E01AB1012A06D098
:100BA000022A03D1C96AC90100D5012010BDC96A52
:100BB000A142FAD010BD002AF7D0012AF2D0022AB1
:100BC000F3D0032AF3D010BD30B50468256825F4AE
:100BD00080252560046863608368402B036803D028
:100BE00099600068C26030BD9A600068C16030BD25
:100BF000704772B6FEE790F82020012A07D0022A3B
:100C000005D0416A41F480214162012070470068AB
:100C100042690A43426100207047F0B590F82050C5
:100C20000468A468012D05D0022D03D0416A41F467
:100C300080215DE014F0406F01D1E50055D5C4F38B
:100C40000164022C03D9416A41F4000150E00125FE
:100C5000A5401D608D684FF4C0739DB1CE683543CB
:100C60004E6845EAC605066803EB0417F5514FF4D4
:100C7000C275076805EB04150E697E51097D0129CF
:100C800005D009E00E88CD6845EA4655EBE70168D6
:100C90004E5946F480764E511179D579567941EA0C
:100CA000056195792D0445EA062529434FF4C6765A
:100CB000056806EB0416A9511178D57841EA05615B
:100CC000957852782D0445EA022211434FF4C475F9
:100CD000026805EB04155151006803EB04114258FA
:100CE00042F0010242500020F0BD416A41F400117F
:100CF00041620120F0BD000010B590F82020012ACB
:100D000007D0022A05D0416A41F4802141620120C6
:100D100010BD3B48D0F8002242F00102C0F800228A
:100D2000D0F8002222F47C52C0F80022D0F8002231
:100D30004B6A42EA0322C0F800220A7D02F01F0338
:100D400001229A40D0F81C329343C0F81C32CB6980
:100D5000B3B9D0F80C329343C0F80C328C894B688D
:100D600064F31F434C6900EBC404C4F840320C899F
:100D70000B6864F31F434C6900EBC404C4F84432AD
:100D8000CB69012B16D1D0F80C321343C0F80C32CA
:100D90000C884B6864F31F434C6900EBC404C4F82F
:100DA00040320C89CB6864F31F434C6900EBC404E8
:100DB000C4F844328B69002BD0F804320ED01343B0
:100DC000C0F804320B69002BD0F8143208D013435A
:100DD000C0F81432096A012904D008E09343EFE710
:100DE0009343F5E7D0F81C121143C0F81C12D0F859
:100DF000001221F00101C0F80012002010BD000017
:100E000000640040704730B590F82040012C05D0B8
:100E1000022C03D0416A41F480215DE0046800297E
:100E200055D02469A40754D04FF4D874056804EB56
:100E300001142D5915F00405956005682D594ED003
:100E4000ED08556005682C5904F00204D4604FF495
:100E5000DA74056804EB01142D5905F00F051561CE
:100E600005682D59C5F30725956105682C59240C93
:100E700054614FF4DC72046802EB0112A4581C7038
:100E80000468A458240A5C700468A458240C9C705C
:100E90000468A258120EDA704FF4DE72046802EB96
:100EA0000112A4581C710468A458240A5C710468D7
:100EB000A458240C9C710468A258120EDA710068C0
:100EC00081B1016941F020010161002030BDE46879
:100ED000A8E7416A41F400114162012030BD6D0D67
:100EE0001560AFE7C16841F02001C160EDE702463F
:100EF000002092F82010012901D002290CD111689C
:100F00008A68520100D501208A68120100D5401C70
:100F10008968C90000D5401C70472DE9F05F05467F
:100F2000006800244669D0F804908768D0F80CB0B7
:100F3000D0F810A0D0F81880F10748D0F90714D0E5
:100F400001218160B80703D5284600F000FA0CE0C3
:100F5000780702D54FF4006407E0380702D54FF454
:100F6000805402E0284600F0F1F9F80516D529680A
:100F70004FF480708860B80503D5284600F0E9F981
:100F80000CE0780502D544F4005407E0380502D59A
:100F900044F4804402E0284600F0DAF9F80316D55C
:100FA00029684FF480308860B80303D5284600F0E4
:100FB000D2F90CE0780302D544F4004407E038038A
:100FC00002D544F4803402E0284600F0C3F930072B
:100FD00007D55FEACB6004D52968102044F400747B
:100FE000C86070074FF0080707D55FEA0B7004D59B
:100FF0002868C760284600F057F9B00706D528686A
:10100000C068800702D0284600F050F9700607D566
:101010005FEACA6004D52968102044F4806408613E
:10102000B00607D55FEA0A7004D52868076128462C
:1010300000F05CF9F00606D528680069800702D048
:10104000284600F054F9B00308D55FEAC96005D519
:10105000296810204860284600F04AF9F00307D5B7
:101060005FEA097004D528684760284600F074F9E3
:10107000300446D55FEA497040D5F00504D55FEAF3
:10108000C87001D044F00104B00504D55FEA88704F
:1010900001D544F00204700504D55FEA487001D51B
:1010A00044F00404300529D518F0700F26D008F05C
:1010B0007000402815D006DC102809D020280AD05E
:1010C000302816D10AE050280ED0602811D10EE049
:1010D00044F008040DE044F010040AE044F0200459
:1010E00007E044F0400404E044F0800401E044F4EC
:1010F00080742868816921F0700181612968042069
:101100004860002C05D0686A204368622846FFF7D3
:1011100079FEBDE8F09F70B5040003D094F820007C
:1011200010B104E0012070BD204600F081F8206875
:10113000016821F00201016000F084FB05460526EC
:1011400004E000F07FFB401B0A2811D820684068AB
:101150008007F6D42068016841F00101016000F0C9
:1011600071FB05460BE000F06DFB401B0A2806D919
:10117000606A40F40030606284F82060D2E7206842
:101180004068C007EFD0207E0128206801683DD06C
:1011900021F080010160607E01282068016838D05C
:1011A00021F040010160A07E01282068016833D051
:1011B00021F020010160E07E0128206801682ED026
:1011C00041F010010160207F01282068016829D0CA
:1011D00021F008010160607F01282068016824D0A7
:1011E00021F004010160D4E902010843D4E90412AA
:1011F000114308436168491E08432168C861002003
:101200006062012084F82000002070BD41F0800160
:10121000C0E741F04001C5E741F02001CAE721F0F5
:101220001001CFE741F00801D4E741F00401D9E70C
:1012300010B586B0044614216846FFF76DF81749CB
:101240002068884227D116480021026842F00072C7
:101250000260006800F000700590114810380268C4
:1012600042F0080202600068022200F008000590C7
:101270000320CDE90210CDE900020920049069465F
:10128000084800F0EFF900220521142000F04CFB83
:10129000142000F03BFB06B010BD000000640040CD
:1012A00040380240000C02407047000000B50D4A73
:1012B00001688BB01268914212D10B4B03AA002136
:1012C000FFF7A1FD08B1FFF794FC07AB0DF10C0C83
:1012D00093E807008DE807009CE80F00FFF7F6FA97
:1012E0000BB000BD78000020600000207047704700
:1012F0007047000070B5044690F82000012804D023
:10130000606A40F40020606218E0022084F8200047
:101310002068016821F00101016000F093FA0546A0
:101320000EE000BF00F08EFA401B0A2808D9606A60
:1013300040F400306062052084F82000012070BD78
:1013400020684068C007EDD1606270BD704770478B
:101350007047704770477047704700002DE9F843A9
:1013600004464FF00009CDF8009063484FF4165141
:10137000A56D0068B0FBF1F72E6894F85C100820AA
:1013800000FA01F131420FD021680A6852070BD5EB
:101390000A6822F004020A6094F85C108840A86091
:1013A000606D40F00100606594F85C104FF001083A
:1013B00008FA01F0304208D021684969090604D5CD
:1013C000A860606D40F00200606594F85C10042035
:1013D0008840304208D021680968890704D5A86090
:1013E000606D40F00400606594F85C101020884047
:1013F000304218D021680968090714D5A860206810
:101400000168490304D50068000308D5A16C07E012
:101410000168C90503D4016821F008010160216C4D
:1014200009B12046884794F85C102020884030425B
:1014300031D021680968C9062DD5A86094F8350017
:1014400005282068016806D0490347D500680003D5
:101450001DD4616C1CE021F0160101602068416917
:1014600021F080014161206C08B9A06C20B1206896
:10147000016821F00801016094F85C103F20884069
:10148000A86084F8349084F83580216D1FE0E16B0A
:1014900009B120468847606D00282BD0606DC007D9
:1014A00014D0052084F835002068016821F001017E
:1014B00001600098401C0090B84203D82068006882
:1014C000C007F6D184F8349084F83580E16C0029A7
:1014D00010D001B02046BDE8F04308470168C905B7
:1014E000D5D4016821F01001016084F8349084F8AB
:1014F0003580CCE7BDE8F8831C0000202DE9F041E1
:10150000044600F09FF906465CB1002584F834508B
:10151000022084F835002068016821F00101016093
:101520000DE00120BDE8F08100F08CF9801B05285A
:1015300005D920206065032084F83500F2E7206893
:101540000068C007F0D12268116820480140D4E942
:1015500001031843D4E9033633431843636918433E
:10156000A3691843E3691843236A18430843616A6F
:10157000042903D1D4E90B131943084310602068F0
:101580004069666A20F0070130460E4301270428AF
:101590000CD1A06A0643E06A40B12046FFF7EAFAA0
:1015A00020B14020606584F83570BAE72068466154
:1015B0002046FFF7CBFA94F85C203F2191408160F0
:1015C000656584F835700020ACE700003F8010F0BE
:1015D0002DE9F0410446866D90F83400002501287D
:1015E0000DD0012084F8340094F835700020012FCC
:1015F00007D084F8340002252846BDE8F081022097
:10160000FBE7022784F8357060652046FFF7DCFAB7
:1016100094F85C103F208840B0602068016841F079
:1016200016010160206C20B12068016841F00801BA
:1016300001602068016841F001010160DCE7000001
:1016400070B5044600F0FEF80546601C02D0044860
:101650000078044400F0F6F8401BA042FAD370BDB5
:10166000100000202DE9F84F00224FF0010803255B
:101670004FF00F0E0B6808FA02F42340A3426ED11C
:101680004E68012E05D0022E03D0112E01D0122E4D
:1016900012D186684FEA420C05FA0CF7BE43CF68B8
:1016A00007FA0CF7374387604668A6430C79C4F302
:1016B0000014944034434460C668570005FA07FCA0
:1016C0008C6826EA0C06BC403443C4604C68022C8B
:1016D00001D0122C13D1D40800EB8404A346D4F813
:1016E000209054074FEAD46A0EFA0AF629EA06094E
:1016F0000E6906FA0AF646EA0906CBF82060046885
:101700000E7924EA0C0406F00306BE402643066068
:101710004C68E4006FD53B4C266846F48046266052
:10172000246822F0030604F480440094364C3444C8
:10173000A446D4F808489607360F0EFA06F7BC43BD
:10174000324FB84201D100272EE0314FB84201D1CB
:10175000012729E02F4FB84202D1022724E04AE0B6
:101760002D4FB84201D103271EE02C4FB84201D1C2
:10177000042719E02A4FB84201D1052714E0294F68
:10178000B84201D106270FE0274FB84201D1072701
:101790000AE0264FB84201D1082705E0244FB8429D
:1017A00001D1092700E00A27B7402743CCF8087881
:1017B000204E34684F689C43FF0300D51C433460BF
:1017C0001C4E361D34684F689C43BF0300D51C4334
:1017D0003460184E083634684F689C43FF0200D5C9
:1017E0001C433460134E0C3634684F689C43BF0270
:1017F00000D51C433460521C102AFFF43BAFBDE8F7
:10180000F88F0000443802400030014000000240E0
:101810000004024000080240000C02400010024098
:101820000014024000180240001C02400020024048
:1018300000240240003C01400AB181617047090464
:10184000FBE700000148806870470000100000209E
:1018500002488168027811448160704710000020BE
:101860000B4810B5016841F400710160016841F452
:1018700080610160016841F480710160032000F023
:1018800073F80F2000F006F800F024F8002010BDD7
:10189000003C024070B50D4D04464FF47A71287833
:1018A000B1FBF0F00A490968B1FBF0F000F040FB31
:1018B00048B9102C07D200222146501E00F034F8FF
:1018C00000206C6070BD012070BD00001000002081
:1018D0001C0000200C4882B0016841F48041016086
:1018E000006800F4804000900748001F016841F044
:1018F000805101600068002200F0805000900F21AC
:10190000901E02B000F010B844380240002809DBF5
:1019100000F01F02012191404009800000F1E02009
:10192000C0F8001170470000F0B40E4B1B680C4665
:10193000C3F30223C3F10705042D00D90425191DA3
:10194000072901D2002300E0DB1E012606FA05F17B
:10195000491E214099409E40761E16403143F0BCFE
:1019600000F075BE0CED00E0064900F007020868C3
:101970004FF6FF03184040EA0220034A1043086074
:10198000704700000CED00E00000FA052DE9F84377
:101990001748016841F0805101600068154F00F060
:1019A0008050012600903E64FFF74CFF05464FF43F
:1019B0007A78114C05E000BFFFF744FF401B40451B
:1019C0000DD86068C003F7D57E64FFF73BFF05467E
:1019D000464607E0FFF736FF401BB04202D903201E
:1019E000BDE8F88360688003F4D50020F8E70000C4
:1019F0004038024000000E42007000402DE9F047E0
:101A00000E46050065D0DFF81481D8F80000F7B263
:101A100000F00F00B04207D288F80070D8F800003C
:101A200000F00F00B04254D128683D4C810712D518
:101A3000400703D5206840F4E05020602878000774
:101A400003D5206840F4604020602068A96820F039
:101A5000F000084320602878C0072DD0304968681E
:101A60000839012812D0022813D0032811D00968A0
:101A7000890700292DDA216821F003010143216043
:101A8000FFF7E0FE814641F2883A0EE009688903DB
:101A9000EFE709688901ECE7FFF7D4FEA0EB090145
:101AA000514502D90320BDE8F0872068696800F03D
:101AB0000C00B0EB810FEFD1D8F80010404601F0D8
:101AC0000F01B14207D90770006800F00F00B04263
:101AD00001D00120E7E72878400705D52068E968AC
:101AE00020F4E050084320602878000706D52068DD
:101AF000296920F4604040EAC100206000F038F815
:101B00002168084AC1F30311515CC84006490860C6
:101B100006480068FFF7BEFE0020C4E7003C024014
:101B200008380240202B00081C0000201400002070
:101B30000448054900680968044AC1F38221515CE0
:101B4000C84070471C00002008380240302B0008B5
:101B50000448054900680968044AC1F34231515CF0
:101B6000C84070471C00002008380240302B000895
:101B7000154810B5006810F00C02144813D0144931
:101B8000042A0FD0082A0ED10F4C241F2268236884
:101B900002F03F025B0207D52068C0F38810A0FB6B
:101BA000010106E0084610BD2168C1F38811A1FBC0
:101BB00000010023FEF778FB2168C1F30141491CB5
:101BC0004900B0FBF1F010BD083802400024F400D9
:101BD000001BB7002DE9F84F04006ED02078DFF825
:101BE0003C93C007A9F104054AD009F1040001683B
:101BF000C1F38101012908D00068C0F381000228E7
:101C00000AD1D9F80000400206D52868800337D5EC
:101C100060680028E1D033E06068B0F5803F10D004
:101C2000B0F5A02F286810D020F4803028602868F4
:101C300020F4802028606068A8B1FFF703FE064604
:101C40000DE0286840F48030F4E740F480202860FC
:101C5000F7E700BFFFF7F6FD801B642873D82868FC
:101C60008003F7D50CE0FFF7EDFD064605E000BF69
:101C7000FFF7E8FD801B6428F0D828688003F7D4BC
:101C80002078DFF89C8280074FF0000A3ED5A348F9
:101C9000001D016811F00C0F08D00068C0F381002E
:101CA00002280BD1D9F80000400207D42868800729
:101CB00016D5E068012800D112E02BE1E068B8B148
:101CC0000120C8F80000FFF7BDFD064605E000BF93
:101CD000FFF7B8FD801B0228C0D828688007F7D519
:101CE0002868216920F0F80040EAC10028600DE072
:101CF000C8F800A0FFF7A6FD064604E0FFF7A2FD26
:101D0000801B02281FD828688007F7D42078000796
:101D100022D5824E83486169703671B1012101601C
:101D2000FFF790FD074604E0FFF78CFDC01B02287B
:101D300009D830688007F7D50EE0C0F800A0FFF79B
:101D400081FD074605E082E0FFF77CFDC01B02280D
:101D50007DD830688007F7D42078400768D5DFF851
:101D6000BCB100270BF13C0BDBF80000C0000BD42A
:101D7000DBF8001041F08051CBF80010DBF80000D8
:101D8000012700F080500090674E3068C00510D4E5
:101D9000306840F480703060FFF754FD009005E03B
:101DA000FFF750FD0099401A022850D83068C0054E
:101DB000F6D55A4EA0686C3601280FD00528306839
:101DC00010D020F001003060306820F00400306056
:101DD000A068B8B1FFF736FD00900FE0306840F022
:101DE0000100F4E740F004003060F7E7FFF72AFD58
:101DF0000099411A41F28830814266D830688007E4
:101E0000F4D50EE0FFF71EFD009007E0FFF71AFD86
:101E10000099411A41F28830814256D830688007D3
:101E2000F4D42FB1DBF8001021F08051CBF8001072
:101E3000A069C8B33949091D0968C1F381010229A4
:101E40004AD00228504607D0C8F8600000E03CE0C5
:101E5000FFF7F8FC04463BE04746C8F86000FFF790
:101E6000F1FC064605E000BFFFF7ECFC801B0228F2
:101E70002BD828688001F7D4D4E907010843A16A68
:101E80002A4A490802EB0141626A41EA8211084389
:101E900094F82C1040EA0161C9F80010012038665E
:101EA000FFF7D0FC044606E036E000BFFFF7CAFCAF
:101EB000001B022809D828688001F7D52CE000BF54
:101EC000FFF7C0FC001B022802D90320BDE8F88FF1
:101ED00028688001F4D41FE00128F7D0D9F8000069
:101EE000E26900F48001914214D1226A00F03F01BE
:101EF00091420FD147F6C071626A0140914209D107
:101F0000A26A00F44031914204D1E16A00F07060AD
:101F1000884201D00120D9E70020D7E704380240E9
:101F200000004742800E4742007000400000FFFF63
:101F300010B5401EB0F1807F01D3012010BD4FF0DD
:101F4000E02460610F21601700F081FB0020A06198
:101F500007202061002010BD704770B5040004D038
:101F600094F83900002510B106E0012070BD84F816
:101F70003850204600F022F8242084F839002068E8
:101F8000C16821F40051C160204600F0CBFA2068FE
:101F9000016921F4904101612068416921F02A0121
:101FA00041612068C16841F40051C160E5632020AF
:101FB00084F8390084F83A00002070BD70B586B00E
:101FC000064614216846FEF7A7F91F493068884283
:101FD00038D11E480025016841F0100101600068F9
:101FE00000F01000059019481438016841F0020112
:101FF00001600068694600F002000590C020009072
:102000000220CDE901050320039007200490104829
:10201000FFF728FB104C0F4820604FF00060C4E928
:1020200001054014C4E9035080106561C4E90650FD
:10203000256220466562FFF761FA08B1FEF7D9FD17
:102040007463A66306B070BD0010014044380240BE
:102050000004024040640240E0000020F8B504465D
:1020600090F83A0020283CD1C1B3BAB394F83800B4
:10207000012836D0012084F83800A162A28500250D
:10208000E563222084F83A00636B1748D863636BDA
:1020900016481864636B1648D864606B1346056570
:1020A0000846666B216802463046091DFFF790FA24
:1020B000206801684168009184F83850C16841F493
:1020C0008071C1602068416941F00101416120686F
:1020D000416941F0400141610020F8BDFFE7012066
:1020E000FBE70220F9E70000AF240008EB2400081A
:1020F00065240008034900680968884201D100F09E
:1021000045B97047A00000207047FEE70E4810B5A3
:102110000C4901600921416000214FF400328160C7
:10212000C0E903124161017641768176C17601777B
:102130004177FEF7F0FF002803D0BDE81040FEF71E
:1021400058BD10BD0064004078000020094808B563
:10215000016841F4800101600068002200F4800001
:10216000009005213A20FFF7DFFBBDE808403A2048
:10217000FFF7CCBB3038024030B587B01421684639
:10218000FEF7CAF819480024016841F00101016016
:10219000016801F001010591016841F0020101604F
:1021A000016801F002010591016841F00801016038
:1021B000016801F008010591016841F080010160AA
:1021C00000680B4D00F08000059000220321284696
:1021D000FFF732FB032000900120CDE9010469469E
:1021E00028460394FFF73EFA07B030BD303802406E
:1021F000000402400C4810B50A4901600B494160D7
:10220000002181600C22C160C0E904128161C161BA
:10221000FFF7A3FE002803D0BDE81040FEF7E9BC9D
:1022200010BD000000100140A0000020A0860100A9
:10223000FEE7FEE790ED040AD0ED030AB0EE002AB7
:1022400030EE600A80ED050AD0ED070AD0ED001AE5
:1022500030EE601A21EE211AD0ED011A01EE801A3B
:10226000F0EE401A40EEC21A90ED062A71EE821A84
:1022700090ED022A02EE211AD0ED081A31EE211A51
:1022800080ED081AC0ED060A80ED070A90ED090AF4
:10229000B4EEC01AF1EE10FA01DD80ED080AD0EDBF
:1022A000080AB1EE400AF4EEC00AF1EE10FA01D2CB
:1022B00080ED080A704710B5FFF7CAFA00F0BAFBC4
:1022C000012803D0BDE8104000F09EBB10BD000007
:1022D00030B593B030216846FEF71EF814210CA8E3
:1022E000FEF71AF820480025016841F0805101608E
:1022F000006800F0805011901C48016841F4404192
:1023000001600068022400F4404011900120009018
:10231000000401908001CDE9064006200890B42019
:10232000CDE9090404200B906846FFF753FC08B17F
:1023300072B6FEE7FFF72AFB08B172B6FEE70CA9FA
:102340000F2081E831004FF4A0500F904FF48050DF
:10235000109005210CA8FFF751FB002801D072B6A0
:10236000FEE713B030BD000040380240007000406E
:102370000548016841F47001016003494FF00060B5
:10238000803908607047000088ED00E070B52B4888
:102390002D4C2DED048B01889FED299BC1F30A0282
:1023A000A0F10C010A804278D308827843EA4213F4
:1023B000C3F30A034B80C378920942EA830302798C
:1023C00043EA8223C3F30A038B805308427943EA2A
:1023D000C213C3F30A03CB8093090B72C2F3011536
:1023E0004D72B0F91000488194ED008B012B03D0A1
:1023F000022B01D0032B0DD1A0F58060FEF71FF951
:1024000053EC192BFEF7ACF853EC182BFEF736F80B
:10241000C4E90201012D06D0022D07D0032D09D1F8
:102420009FED0A0B04E09FED0B0B01E09FED0B0B02
:1024300084ED000BBDEC048B70BD0000BC060020D9
:102440000000000000A084406800002000000000A0
:102450000080664000000000008076400000000020
:102460000080564070B5846B2068406994F839103C
:10247000C0F3C0100025212904D118B1E5842046FD
:1024800000F046F82068406994F83A10C0F38010D4
:10249000222904D118B1E585204600F02BF8E06B25
:1024A00040F01000E0632046FFF756FD70BD10B508
:1024B0000146806B09680968C90513D40021C185EC
:1024C0000168CA6822F48072CA6001684A6922F011
:1024D00001024A6101684A6922F040024A612021F2
:1024E00080F83A10FFF706FE10BD10B5806BFFF7BD
:1024F0000BFE10BD0168CA6822F49072CA600168C0
:102500004A6922F001024A61202180F83A1070479E
:102510000168CA6822F0C002CA60202180F8391020
:10252000704700002DE9F041044600680169E26847
:1025300021F44051114301612169A068E269084317
:102540006169114308432168CA6849F20C639A43E0
:102550000243CA6020684169A26921F440711143B5
:102560004161E069192764253226B0F5004F354AEC
:10257000354920684FF0000806D0884201D09042CB
:1025800036D1FFF7E5FA35E0884201D0904202D11A
:10259000FFF7DEFA01E0FFF7CBFA61684A18A0FB0B
:1025A000070148EB0803FDF77FFE0146B0FBF5F09D
:1025B0000201B1FBF5F06FF01803584301EB800006
:1025C00006EBC000B0FBF5F000F0F80002EB4002B3
:1025D000B1FBF5F0584301EB800006EBC000B0FB07
:1025E000F5F000F00700216810448860BDE8F08134
:1025F000FFF79EFA61688B0F8A00A0FB0701FDF7C9
:1026000053FE0146B0FBF5F06FF01802504301EBAA
:10261000800006EB0010B0FBF5F000F0F002B1FB1B
:10262000F5F002EB0012B1FBF5F06FF01803584320
:1026300001EB800006EB0010B0FBF5F000F00F009E
:10264000D1E700000014014000100140FEE7090737
:10265000090E002804DB00F1E02080F80014704728
:1026600000F00F0000F1E02080F8141D704702E038
:1026700008C8121F08C1002AFAD17047704700200D
:1026800001E001C1121F002AFBD170470988DFED6C
:102690000B0A49BA00EE101A90ED0D1AB8EE400A76
:1026A00060EE200A80EE810A80ED020A80ED060AC3
:1026B00080ED070A80ED080A704700000000B4436F
:1026C0002DED048B86B0FFF7CBF8FFF701FEFFF787
:1026D00053FDFFF73BFDFFF719FDFFF78BFD80482A
:1026E000FEF7CCF87F4C00200121207084F8900088
:1026F00084F8200184F8B00184F8400284F8D00204
:1027000084F8601384F8F003FEF76AF91222764920
:102710007648FFF7A3FCB5EE009A6FF063089FEDD3
:10272000748B04F5347005909030734E0490734DA3
:1027300004F51070DFED729A039004F1900002909E
:1027400004F57C7004F5907B04F5D87A04F5806973
:10275000CDF80400B6F90400A0F58060642805DD1A
:1027600095ED010A30EE090A85ED010A404505DACA
:1027700095ED010A30EE490A85ED010AB6F90670B9
:10278000A7F58067642F09DDA868FDF769FF53ECA2
:10279000182BFDF76DFEFDF776FFA860474509DAB7
:1027A000A868FDF75DFF53EC182BFDF7C0FDFDF7A2
:1027B0006AFFA860B6F90070A7F58067642F09DD8D
:1027C000E868FDF74DFF53EC182BFDF751FEFDF7C0
:1027D0005AFFE860474509DAE868FDF741FF53EC26
:1027E000182BFDF7A4FDFDF74EFFE860059895ED69
:1027F000020A00F089F8049895ED010A00F084F8C7
:10280000039895ED030A00F07FF8707A012864D0F0
:102810009FED3C0A85ED000A324895ED000A00F074
:102820009DF8029895ED000A00F098F895ED000AE1
:102830005846B1EE400A00F091F895ED000A504676
:10284000B1EE400A00F08AF8B0EE690A019800F093
:1028500085F894ED820ABDEEC00A10EE100A00B2AF
:10286000009094ED5E0ABDEEC00A10EE100A94EDE1
:102870003A0A03B2BDEEC00A10EE100A94ED160A31
:1028800002B2BDEEC00A10EE100A01B21448FEF703
:1028900025F899ED120ABDEEC00A10EE100A00B23A
:1028A000009094EDEE0ABDEEC00A10EE100A94ED11
:1028B000CA0A03B2BDEEC00A10EE100A94EDA60AD1
:1028C00002B2BDEEC00A10EE100A01B20448FEF7D3
:1028D00037F80120FEF7B4FE3CE7C5ED009A9BE710
:1028E0007800002030020020BC060020A00000205C
:1028F000333333333333C33FB006002000000020AE
:102900000000FA430000000000B580ED1D0A90EDC4
:102910000A0A014680ED1C0A6430FFF78BFC91ED3A
:10292000210A01F1380081ED120A91ED030A81EDCF
:10293000110A5DF804EBFFF77DBC00000648416812
:10294000096829B14168C968C96849680163704765
:102950004FF0FF31FAE700002000002080ED120A5E
:1029600090ED030A80ED110A3830FFF763BCD0E91F
:10297000013201699A60D0E901235A604A688242B3
:1029800001D182684A60002202610868401E086026
:102990000868704742684A6093688B609368596022
:1029A000916008610168491C016070471448816B9F
:1029B00011B1012141627047002141628169B1FA80
:1029C00081F1C1F11F0101EB81020E4951F8223062
:1029D0006BB101EB820101F108034A6852684A6059
:1029E0009A4201D152684A60D16801607047502014
:1029F00080F31188BFF34F8FBFF36F8FFEE70000A6
:102A0000200000204001002010B5502080F31188E4
:102A1000BFF34F8FBFF36F8F00F01AF818B104495E
:102A20004FF080500860002080F3118810BD000036
:102A300004ED00E00548C16919B1806B18B10020B0
:102A400070470120704702207047000020000020DE
:102A50002DE9F0412E4C0027A06B40B1206A401CAC
:102A60002062606A00B101273846BDE8F0816669DE
:102A7000761C666113D16068006838B1502080F31D
:102A80001188BFF34F8FBFF36F8FFEE76068A168B7
:102A90006160A060A06A401CA062FFF74FFF206B3E
:102AA000DFF87080864209D36068006880B1606892
:102AB000C068C568686886420DD220632068C06A15
:102AC00000EB800158F821000128CAD90127C8E786
:102AD0004FF0FF30F1E7281DFFF749FFA86A18B152
:102AE00005F11800FFF743FFE86A0121A269814060
:102AF0001143A16100EB800108EB8100291DFFF764
:102B000049FFE86A2168C96A8842CDD30127CBE72B
:102B100020000020400100200006101600061016BC
:102B2000000000000000000001020304060708097D
:102B30000000000001020304582B000800000020E0
:102B4000780000006E260008D02B000878000020D6
:102B5000580A00007E260008000000000000000067
:102B60000000000000000000010000001000000054
:102B7000000000000024F40000000000000000003D
:102B80000000000000000000000000000000000045
:102B90000000000000000000000000000000000035
:102BA0000000000000000000000000000000000025
:102BB0000000000000000000000000000000000015
:102BC00000000000008076400000000000000000CF
:04000005080001AD41
:00000001FF
